{
  "_format": "hh-sol-artifact-1",
  "contractName": "ChickenRunV4",
  "sourceName": "contracts/ChickenRunV4.sol",
  "abi": [
    {
      "anonymous": false,
      "inputs": [
        {
          "indexed": true,
          "internalType": "address",
          "name": "owner",
          "type": "address"
        },
        {
          "indexed": true,
          "internalType": "address",
          "name": "approved",
          "type": "address"
        },
        {
          "indexed": true,
          "internalType": "uint256",
          "name": "tokenId",
          "type": "uint256"
        }
      ],
      "name": "Approval",
      "type": "event"
    },
    {
      "anonymous": false,
      "inputs": [
        {
          "indexed": true,
          "internalType": "address",
          "name": "owner",
          "type": "address"
        },
        {
          "indexed": true,
          "internalType": "address",
          "name": "operator",
          "type": "address"
        },
        {
          "indexed": false,
          "internalType": "bool",
          "name": "approved",
          "type": "bool"
        }
      ],
      "name": "ApprovalForAll",
      "type": "event"
    },
    {
      "anonymous": false,
      "inputs": [
        {
          "indexed": true,
          "internalType": "address",
          "name": "_holder",
          "type": "address"
        },
        {
          "indexed": false,
          "internalType": "uint256",
          "name": "_bal",
          "type": "uint256"
        },
        {
          "indexed": false,
          "internalType": "bool",
          "name": "_result",
          "type": "bool"
        }
      ],
      "name": "GBERC20Checked",
      "type": "event"
    },
    {
      "anonymous": false,
      "inputs": [
        {
          "indexed": false,
          "internalType": "uint256",
          "name": "chiknNumber",
          "type": "uint256"
        },
        {
          "indexed": false,
          "internalType": "address",
          "name": "from",
          "type": "address"
        },
        {
          "indexed": false,
          "internalType": "address",
          "name": "to",
          "type": "address"
        },
        {
          "indexed": false,
          "internalType": "uint256",
          "name": "price",
          "type": "uint256"
        }
      ],
      "name": "PurchaseEvent",
      "type": "event"
    },
    {
      "anonymous": false,
      "inputs": [
        {
          "indexed": false,
          "internalType": "uint256",
          "name": "chiknNumber",
          "type": "uint256"
        },
        {
          "indexed": false,
          "internalType": "bool",
          "name": "isForSale",
          "type": "bool"
        },
        {
          "indexed": false,
          "internalType": "uint256",
          "name": "price",
          "type": "uint256"
        }
      ],
      "name": "SaleToggle",
      "type": "event"
    },
    {
      "anonymous": false,
      "inputs": [
        {
          "indexed": true,
          "internalType": "address",
          "name": "from",
          "type": "address"
        },
        {
          "indexed": true,
          "internalType": "address",
          "name": "to",
          "type": "address"
        },
        {
          "indexed": true,
          "internalType": "uint256",
          "name": "tokenId",
          "type": "uint256"
        }
      ],
      "name": "Transfer",
      "type": "event"
    },
    {
      "inputs": [],
      "name": "GB_erc20_contract",
      "outputs": [
        {
          "internalType": "address",
          "name": "",
          "type": "address"
        }
      ],
      "stateMutability": "view",
      "type": "function"
    },
    {
      "inputs": [
        {
          "internalType": "address",
          "name": "_toAdd",
          "type": "address"
        }
      ],
      "name": "addAuthorized",
      "outputs": [],
      "stateMutability": "nonpayable",
      "type": "function"
    },
    {
      "inputs": [
        {
          "internalType": "uint256",
          "name": "",
          "type": "uint256"
        }
      ],
      "name": "allChickenRun",
      "outputs": [
        {
          "internalType": "uint256",
          "name": "tokenId",
          "type": "uint256"
        },
        {
          "internalType": "address",
          "name": "mintedBy",
          "type": "address"
        },
        {
          "internalType": "address",
          "name": "currentOwner",
          "type": "address"
        },
        {
          "internalType": "uint256",
          "name": "previousPrice",
          "type": "uint256"
        },
        {
          "internalType": "uint256",
          "name": "price",
          "type": "uint256"
        },
        {
          "internalType": "uint256",
          "name": "numberOfTransfers",
          "type": "uint256"
        },
        {
          "internalType": "bool",
          "name": "forSale",
          "type": "bool"
        },
        {
          "internalType": "uint256",
          "name": "kg",
          "type": "uint256"
        }
      ],
      "stateMutability": "view",
      "type": "function"
    },
    {
      "inputs": [
        {
          "internalType": "address",
          "name": "to",
          "type": "address"
        },
        {
          "internalType": "uint256",
          "name": "tokenId",
          "type": "uint256"
        }
      ],
      "name": "approve",
      "outputs": [],
      "stateMutability": "nonpayable",
      "type": "function"
    },
    {
      "inputs": [
        {
          "internalType": "address",
          "name": "",
          "type": "address"
        }
      ],
      "name": "authorized",
      "outputs": [
        {
          "internalType": "bool",
          "name": "",
          "type": "bool"
        }
      ],
      "stateMutability": "view",
      "type": "function"
    },
    {
      "inputs": [
        {
          "internalType": "address",
          "name": "owner",
          "type": "address"
        }
      ],
      "name": "balanceOf",
      "outputs": [
        {
          "internalType": "uint256",
          "name": "",
          "type": "uint256"
        }
      ],
      "stateMutability": "view",
      "type": "function"
    },
    {
      "inputs": [],
      "name": "baseURL",
      "outputs": [
        {
          "internalType": "string",
          "name": "",
          "type": "string"
        }
      ],
      "stateMutability": "view",
      "type": "function"
    },
    {
      "inputs": [
        {
          "internalType": "uint256",
          "name": "_tokenId",
          "type": "uint256"
        }
      ],
      "name": "buyToken",
      "outputs": [],
      "stateMutability": "payable",
      "type": "function"
    },
    {
      "inputs": [
        {
          "internalType": "string",
          "name": "url",
          "type": "string"
        }
      ],
      "name": "changeUrl",
      "outputs": [],
      "stateMutability": "nonpayable",
      "type": "function"
    },
    {
      "inputs": [
        {
          "internalType": "address",
          "name": "",
          "type": "address"
        }
      ],
      "name": "excludedList",
      "outputs": [
        {
          "internalType": "bool",
          "name": "",
          "type": "bool"
        }
      ],
      "stateMutability": "view",
      "type": "function"
    },
    {
      "inputs": [],
      "name": "gbHoldersMaxMint",
      "outputs": [
        {
          "internalType": "uint256",
          "name": "",
          "type": "uint256"
        }
      ],
      "stateMutability": "view",
      "type": "function"
    },
    {
      "inputs": [],
      "name": "gbTotalSupply",
      "outputs": [
        {
          "internalType": "uint256",
          "name": "",
          "type": "uint256"
        }
      ],
      "stateMutability": "view",
      "type": "function"
    },
    {
      "inputs": [
        {
          "internalType": "address",
          "name": "",
          "type": "address"
        }
      ],
      "name": "gbholders",
      "outputs": [
        {
          "internalType": "bool",
          "name": "",
          "type": "bool"
        }
      ],
      "stateMutability": "view",
      "type": "function"
    },
    {
      "inputs": [],
      "name": "getAllSaleTokens",
      "outputs": [
        {
          "internalType": "uint256[]",
          "name": "",
          "type": "uint256[]"
        }
      ],
      "stateMutability": "view",
      "type": "function"
    },
    {
      "inputs": [
        {
          "internalType": "uint256",
          "name": "tokenId",
          "type": "uint256"
        }
      ],
      "name": "getApproved",
      "outputs": [
        {
          "internalType": "address",
          "name": "",
          "type": "address"
        }
      ],
      "stateMutability": "view",
      "type": "function"
    },
    {
      "inputs": [
        {
          "internalType": "address",
          "name": "_contractOwner",
          "type": "address"
        },
        {
          "internalType": "address",
          "name": "_royaltyReceiver",
          "type": "address"
        },
        {
          "internalType": "uint256",
          "name": "_royaltyPercentage",
          "type": "uint256"
        },
        {
          "internalType": "uint256",
          "name": "_mintFeeAmount",
          "type": "uint256"
        },
        {
          "internalType": "string",
          "name": "_baseURL",
          "type": "string"
        },
        {
          "internalType": "address",
          "name": "_gbContractAddress",
          "type": "address"
        },
        {
          "internalType": "bool",
          "name": "_openForGB",
          "type": "bool"
        },
        {
          "internalType": "bool",
          "name": "_openForPublic",
          "type": "bool"
        }
      ],
      "name": "initialize",
      "outputs": [],
      "stateMutability": "nonpayable",
      "type": "function"
    },
    {
      "inputs": [
        {
          "internalType": "address",
          "name": "owner",
          "type": "address"
        },
        {
          "internalType": "address",
          "name": "operator",
          "type": "address"
        }
      ],
      "name": "isApprovedForAll",
      "outputs": [
        {
          "internalType": "bool",
          "name": "",
          "type": "bool"
        }
      ],
      "stateMutability": "view",
      "type": "function"
    },
    {
      "inputs": [],
      "name": "maxSupply",
      "outputs": [
        {
          "internalType": "uint256",
          "name": "",
          "type": "uint256"
        }
      ],
      "stateMutability": "view",
      "type": "function"
    },
    {
      "inputs": [
        {
          "internalType": "uint256",
          "name": "numberOfToken",
          "type": "uint256"
        }
      ],
      "name": "mint",
      "outputs": [],
      "stateMutability": "payable",
      "type": "function"
    },
    {
      "inputs": [],
      "name": "mintFeeAmount",
      "outputs": [
        {
          "internalType": "uint256",
          "name": "",
          "type": "uint256"
        }
      ],
      "stateMutability": "view",
      "type": "function"
    },
    {
      "inputs": [],
      "name": "name",
      "outputs": [
        {
          "internalType": "string",
          "name": "",
          "type": "string"
        }
      ],
      "stateMutability": "view",
      "type": "function"
    },
    {
      "inputs": [],
      "name": "openForGB",
      "outputs": [
        {
          "internalType": "bool",
          "name": "",
          "type": "bool"
        }
      ],
      "stateMutability": "view",
      "type": "function"
    },
    {
      "inputs": [],
      "name": "openForPublic",
      "outputs": [
        {
          "internalType": "bool",
          "name": "",
          "type": "bool"
        }
      ],
      "stateMutability": "view",
      "type": "function"
    },
    {
      "inputs": [
        {
          "internalType": "uint256",
          "name": "tokenId",
          "type": "uint256"
        }
      ],
      "name": "ownerOf",
      "outputs": [
        {
          "internalType": "address",
          "name": "",
          "type": "address"
        }
      ],
      "stateMutability": "view",
      "type": "function"
    },
    {
      "inputs": [
        {
          "internalType": "address",
          "name": "_toRemove",
          "type": "address"
        }
      ],
      "name": "removeAuthorized",
      "outputs": [],
      "stateMutability": "nonpayable",
      "type": "function"
    },
    {
      "inputs": [],
      "name": "royaltyPercentage",
      "outputs": [
        {
          "internalType": "uint256",
          "name": "",
          "type": "uint256"
        }
      ],
      "stateMutability": "view",
      "type": "function"
    },
    {
      "inputs": [
        {
          "internalType": "address",
          "name": "from",
          "type": "address"
        },
        {
          "internalType": "address",
          "name": "to",
          "type": "address"
        },
        {
          "internalType": "uint256",
          "name": "tokenId",
          "type": "uint256"
        }
      ],
      "name": "safeTransferFrom",
      "outputs": [],
      "stateMutability": "nonpayable",
      "type": "function"
    },
    {
      "inputs": [
        {
          "internalType": "address",
          "name": "from",
          "type": "address"
        },
        {
          "internalType": "address",
          "name": "to",
          "type": "address"
        },
        {
          "internalType": "uint256",
          "name": "tokenId",
          "type": "uint256"
        },
        {
          "internalType": "bytes",
          "name": "_data",
          "type": "bytes"
        }
      ],
      "name": "safeTransferFrom",
      "outputs": [],
      "stateMutability": "nonpayable",
      "type": "function"
    },
    {
      "inputs": [
        {
          "internalType": "address",
          "name": "operator",
          "type": "address"
        },
        {
          "internalType": "bool",
          "name": "approved",
          "type": "bool"
        }
      ],
      "name": "setApprovalForAll",
      "outputs": [],
      "stateMutability": "nonpayable",
      "type": "function"
    },
    {
      "inputs": [
        {
          "internalType": "uint256",
          "name": "_tokenId",
          "type": "uint256"
        },
        {
          "internalType": "uint256",
          "name": "_newKg",
          "type": "uint256"
        }
      ],
      "name": "setKg",
      "outputs": [],
      "stateMutability": "nonpayable",
      "type": "function"
    },
    {
      "inputs": [
        {
          "internalType": "uint256",
          "name": "_tokenId",
          "type": "uint256"
        },
        {
          "internalType": "uint256",
          "name": "_newPrice",
          "type": "uint256"
        },
        {
          "internalType": "bool",
          "name": "isForSale",
          "type": "bool"
        }
      ],
      "name": "setPriceForSale",
      "outputs": [],
      "stateMutability": "nonpayable",
      "type": "function"
    },
    {
      "inputs": [
        {
          "internalType": "bytes4",
          "name": "interfaceId",
          "type": "bytes4"
        }
      ],
      "name": "supportsInterface",
      "outputs": [
        {
          "internalType": "bool",
          "name": "",
          "type": "bool"
        }
      ],
      "stateMutability": "view",
      "type": "function"
    },
    {
      "inputs": [],
      "name": "symbol",
      "outputs": [
        {
          "internalType": "string",
          "name": "",
          "type": "string"
        }
      ],
      "stateMutability": "view",
      "type": "function"
    },
    {
      "inputs": [
        {
          "internalType": "address",
          "name": "owner",
          "type": "address"
        },
        {
          "internalType": "uint256",
          "name": "index",
          "type": "uint256"
        }
      ],
      "name": "tokenOfOwnerByIndex",
      "outputs": [
        {
          "internalType": "uint256",
          "name": "",
          "type": "uint256"
        }
      ],
      "stateMutability": "view",
      "type": "function"
    },
    {
      "inputs": [
        {
          "internalType": "uint256",
          "name": "tokenId",
          "type": "uint256"
        }
      ],
      "name": "tokenURI",
      "outputs": [
        {
          "internalType": "string",
          "name": "",
          "type": "string"
        }
      ],
      "stateMutability": "view",
      "type": "function"
    },
    {
      "inputs": [],
      "name": "totalSupply",
      "outputs": [
        {
          "internalType": "uint256",
          "name": "",
          "type": "uint256"
        }
      ],
      "stateMutability": "view",
      "type": "function"
    },
    {
      "inputs": [
        {
          "internalType": "address",
          "name": "from",
          "type": "address"
        },
        {
          "internalType": "address",
          "name": "to",
          "type": "address"
        },
        {
          "internalType": "uint256",
          "name": "tokenId",
          "type": "uint256"
        }
      ],
      "name": "transferFrom",
      "outputs": [],
      "stateMutability": "nonpayable",
      "type": "function"
    }
  ],
  "bytecode": "0x608060405234801561001057600080fd5b50612eb7806100206000396000f3fe6080604052600436106102195760003560e01c80637b26b18311610123578063b9181611116100ab578063ee1a51681161006f578063ee1a5168146106e6578063eff3c4e714610708578063f33d627f14610727578063f91db6c714610747578063fac1c2421461075d57600080fd5b8063b918161114610617578063c87b56dd14610647578063cf1c316a14610667578063d5abeb0114610687578063e985e9c51461069d57600080fd5b8063a0712d68116100f2578063a0712d681461058e578063a22cb465146105a1578063a54dbcf6146105c1578063ac4732b9146105e1578063b88d4fde146105f757600080fd5b80637b26b1831461048b5780637eb01a58146105435780638a71bb2d1461056357806395d89b411461057957600080fd5b80632f745c59116101a6578063485d7d9411610175578063485d7d94146103db5780635600d2fa146103fb5780635f823d281461042b5780636352211e1461044b57806370a082311461046b57600080fd5b80632f745c59146103565780633c2f1ae11461037657806340c84b0e146103a657806342842e0e146103bb57600080fd5b8063095ea7b3116101ed578063095ea7b3146102cd57806318160ddd146102ef57806323b872dd1461030e57806326ed8e7a1461032e5780632d296bf11461034357600080fd5b80621570de1461021e57806301ffc9a71461025b57806306fdde031461028b578063081812fc146102ad575b600080fd5b34801561022a57600080fd5b50609c5461023e906001600160a01b031681565b6040516001600160a01b0390911681526020015b60405180910390f35b34801561026757600080fd5b5061027b610276366004612a35565b610777565b6040519015158152602001610252565b34801561029757600080fd5b506102a06107c9565b6040516102529190612c2d565b3480156102b957600080fd5b5061023e6102c8366004612aa0565b61085b565b3480156102d957600080fd5b506102ed6102e8366004612a0c565b6108f5565b005b3480156102fb57600080fd5b5060a5545b604051908152602001610252565b34801561031a57600080fd5b506102ed61032936600461288d565b610a0b565b34801561033a57600080fd5b50609d54610300565b6102ed610351366004612aa0565b610a3c565b34801561036257600080fd5b50610300610371366004612a0c565b610cd5565b34801561038257600080fd5b5061027b610391366004612841565b609b6020526000908152604090205460ff1681565b3480156103b257600080fd5b506102a0610d47565b3480156103c757600080fd5b506102ed6103d636600461288d565b610dd5565b3480156103e757600080fd5b506102ed6103f6366004612841565b610df0565b34801561040757600080fd5b5061027b610416366004612841565b609a6020526000908152604090205460ff1681565b34801561043757600080fd5b506102ed610446366004612a6d565b610e80565b34801561045757600080fd5b5061023e610466366004612aa0565b610ede565b34801561047757600080fd5b50610300610486366004612841565b610f55565b34801561049757600080fd5b506104fa6104a6366004612aa0565b60a2602052600090815260409020805460018201546002830154600384015460048501546005860154600687015460079097015495966001600160a01b0395861696959094169492939192909160ff169088565b604080519889526001600160a01b0397881660208a015295909616948701949094526060860192909252608085015260a0840152151560c083015260e082015261010001610252565b34801561054f57600080fd5b506102ed61055e366004612ad9565b610fdc565b34801561056f57600080fd5b5061030060995481565b34801561058557600080fd5b506102a0611281565b6102ed61059c366004612aa0565b611290565b3480156105ad57600080fd5b506102ed6105bc3660046129e3565b611562565b3480156105cd57600080fd5b506102ed6105dc366004612941565b61156d565b3480156105ed57600080fd5b50610300609e5481565b34801561060357600080fd5b506102ed6106123660046128c8565b611724565b34801561062357600080fd5b5061027b610632366004612841565b60a76020526000908152604090205460ff1681565b34801561065357600080fd5b506102a0610662366004612aa0565b61175c565b34801561067357600080fd5b506102ed610682366004612841565b61178d565b34801561069357600080fd5b5061030061271081565b3480156106a957600080fd5b5061027b6106b836600461285b565b6001600160a01b039182166000908152606a6020908152604080832093909416825291909152205460ff1690565b3480156106f257600080fd5b506106fb61180a565b6040516102529190612be9565b34801561071457600080fd5b5060a05461027b90610100900460ff1681565b34801561073357600080fd5b506102ed610742366004612ab8565b6118fe565b34801561075357600080fd5b5061030061038481565b34801561076957600080fd5b5060a05461027b9060ff1681565b60006001600160e01b031982166380ac58cd60e01b14806107a857506001600160e01b03198216635b5e139f60e01b145b806107c357506301ffc9a760e01b6001600160e01b03198316145b92915050565b6060606580546107d890612dbc565b80601f016020809104026020016040519081016040528092919081815260200182805461080490612dbc565b80156108515780601f1061082657610100808354040283529160200191610851565b820191906000526020600020905b81548152906001019060200180831161083457829003601f168201915b5050505050905090565b6000818152606760205260408120546001600160a01b03166108d95760405162461bcd60e51b815260206004820152602c60248201527f4552433732313a20617070726f76656420717565727920666f72206e6f6e657860448201526b34b9ba32b73a103a37b5b2b760a11b60648201526084015b60405180910390fd5b506000908152606960205260409020546001600160a01b031690565b600061090082610ede565b9050806001600160a01b0316836001600160a01b0316141561096e5760405162461bcd60e51b815260206004820152602160248201527f4552433732313a20617070726f76616c20746f2063757272656e74206f776e656044820152603960f91b60648201526084016108d0565b336001600160a01b038216148061098a575061098a81336106b8565b6109fc5760405162461bcd60e51b815260206004820152603860248201527f4552433732313a20617070726f76652063616c6c6572206973206e6f74206f7760448201527f6e6572206e6f7220617070726f76656420666f7220616c6c000000000000000060648201526084016108d0565b610a068383611b03565b505050565b610a153382611b71565b610a315760405162461bcd60e51b81526004016108d090612c92565b610a06838383611c68565b6000818152606760205260409020546001600160a01b0316610a5d57600080fd5b6000610a6882610ede565b90506001600160a01b038116610a7d57600080fd5b6001600160a01b038116331415610a9357600080fd5b600082815260a260209081526040918290208251610100810184528154815260018201546001600160a01b039081169382019390935260028201549092169282019290925260038201546060820152600482015460808201819052600583015460a0830152600683015460ff16151560c083015260079092015460e082015290341015610b1f57600080fd5b8060c00151610b2d57600080fd5b6099543490600090606490610b429084612d5a565b610b4c9190612d46565b90506000610b5a8284612d79565b6098546040519192506001600160a01b03169083156108fc029084906000818181858888f19350505050158015610b95573d6000803e3d6000fd5b5083604001516001600160a01b03166108fc829081150290604051600060405180830381858888f19350505050158015610bd3573d6000803e3d6000fd5b5060808401805160608601908152600088815260a2602090815260409182902088518155908801516001820180546001600160a01b03199081166001600160a01b039384161790915592890151600283018054909416911617909155905160038201559051600482015560a0850151600582015560c085015160068201805460ff191691151591909117905560e0850151600790910155610c75853388611c68565b60408481015160808087015183518a81526001600160a01b0390931660208401523383850152606083015291517fdc84c3c75a393011959e6391215e5b01982de6ad00f83b8b26ac7c52a5844b22929181900390910190a1505050505050565b6000610ce083610f55565b8210610d1e5760405162461bcd60e51b815260206004820152600d60248201526c6f7574206f6620626f756e647360981b60448201526064016108d0565b506001600160a01b0391909116600090815260a360209081526040808320938352929052205490565b609f8054610d5490612dbc565b80601f0160208091040260200160405190810160405280929190818152602001828054610d8090612dbc565b8015610dcd5780601f10610da257610100808354040283529160200191610dcd565b820191906000526020600020905b815481529060010190602001808311610db057829003601f168201915b505050505081565b610a0683838360405180602001604052806000815250611724565b6097546001600160a01b03163314610e365760405162461bcd60e51b81526020600482015260096024820152682737ba1037bbb732b960b91b60448201526064016108d0565b6001600160a01b038116610e4957600080fd5b6001600160a01b038116331415610e5f57600080fd5b6001600160a01b0316600090815260a760205260409020805460ff19169055565b6097546001600160a01b03163314610ec75760405162461bcd60e51b815260206004820152600a60248201526927b7363c9037bbb732b960b11b60448201526064016108d0565b8051610eda90609f9060208401906126e0565b5050565b6000818152606760205260408120546001600160a01b0316806107c35760405162461bcd60e51b815260206004820152602960248201527f4552433732313a206f776e657220717565727920666f72206e6f6e657869737460448201526832b73a103a37b5b2b760b91b60648201526084016108d0565b60006001600160a01b038216610fc05760405162461bcd60e51b815260206004820152602a60248201527f4552433732313a2062616c616e636520717565727920666f7220746865207a65604482015269726f206164647265737360b01b60648201526084016108d0565b506001600160a01b031660009081526068602052604090205490565b6000838152606760205260409020546001600160a01b03166110325760405162461bcd60e51b815260206004820152600f60248201526e1d1bdad95b881b9bdd08199bdd5b99608a1b60448201526064016108d0565b600061103d84610ede565b90506001600160a01b03811633146110835760405162461bcd60e51b81526020600482015260096024820152683737ba1037bbb732b960b91b60448201526064016108d0565b600060a2600086815260200190815260200160002060405180610100016040529081600082015481526020016001820160009054906101000a90046001600160a01b03166001600160a01b03166001600160a01b031681526020016002820160009054906101000a90046001600160a01b03166001600160a01b03166001600160a01b031681526020016003820154815260200160048201548152602001600582015481526020016006820160009054906101000a900460ff16151515158152602001600782015481525050905083816080018181525050828160c00190151590811515815250508060a260008781526020019081526020016000206000820151816000015560208201518160010160006101000a8154816001600160a01b0302191690836001600160a01b0316021790555060408201518160020160006101000a8154816001600160a01b0302191690836001600160a01b03160217905550606082015181600301556080820151816004015560a0820151816005015560c08201518160060160006101000a81548160ff02191690831515021790555060e082015181600701559050507f64b12cff1b4037cf4ed0ff891d2f6f0ee06c004d6bac81d0e718c447a93fe16e858486604051611272939291909283529015156020830152604082015260600190565b60405180910390a15050505050565b6060606680546107d890612dbc565b60a05460ff6101009091041615156001146112d85760405162461bcd60e51b81526020600482015260086024820152673737ba1037b832b760c11b60448201526064016108d0565b336112e257600080fd5b60a554612710906112f4908390612d2e565b111561132f5760405162461bcd60e51b815260206004820152600a6024820152696d617820737570706c7960b01b60448201526064016108d0565b600081116113675760405162461bcd60e51b81526020600482015260056024820152644d696e203160d81b60448201526064016108d0565b600c8111156113a15760405162461bcd60e51b815260206004820152600660248201526526b0bc10189960d11b60448201526064016108d0565b336000908152609a602052604081205460ff1661140d5781609e546113c69190612d5a565b90508034146114085760405162461bcd60e51b815260206004820152600e60248201526d4e6f7420656e6f7567682066656560901b60448201526064016108d0565b61143b565b60405133903480156108fc02916000818181858888f19350505050158015611439573d6000803e3d6000fd5b505b60015b828111610a065761145360a180546001019055565b600061145e60a15490565b905061146a3382611e0f565b6040805161010081018252828152336020808301828152838501928352600060608501818152608086018a815260a0870183815260c08801848152606460e08a019081528b865260a29097529884208851815594516001860180546001600160a01b03199081166001600160a01b039384161790915597516002870180549099169116179096559051600384015551600483015592516005820155935160068501805460ff1916911515919091179055516007909301839055909161152e90611e29565b9061154c5760405162461bcd60e51b81526004016108d09190612c2d565b505050808061155a90612df7565b91505061143e565b610eda338383611f43565b600054610100900460ff166115885760005460ff161561158c565b303b155b6115ef5760405162461bcd60e51b815260206004820152602e60248201527f496e697469616c697a61626c653a20636f6e747261637420697320616c72656160448201526d191e481a5b9a5d1a585b1a5e995960921b60648201526084016108d0565b600054610100900460ff16158015611611576000805461ffff19166101011790555b6116556040518060400160405280600581526020016431b434b5b760d91b8152506040518060400160405280600581526020016431b434b5b760d91b815250612012565b6099879055609780546001600160a01b03808c166001600160a01b0319928316811790935560988054918c16919092168117909155609e8890556000918252609a60209081526040808420805460ff19908116600190811790925593855293208054909216909217905585516116d191609f91908801906126e0565b50609c80546001600160a01b0319166001600160a01b03861617905560a0805461010061ffff1990911685151561ff001916171790558015611719576000805461ff00191690555b505050505050505050565b61172e3383611b71565b61174a5760405162461bcd60e51b81526004016108d090612c92565b61175684848484612043565b50505050565b606061176782611e29565b6040516020016117779190612b39565b6040516020818303038152906040529050919050565b6097546001600160a01b031633146117d35760405162461bcd60e51b81526020600482015260096024820152682737ba1037bbb732b960b91b60448201526064016108d0565b6001600160a01b0381166117e657600080fd5b6001600160a01b0316600090815260a760205260409020805460ff19166001179055565b6060600061181760a55490565b905060008167ffffffffffffffff81111561184257634e487b7160e01b600052604160045260246000fd5b60405190808252806020026020018201604052801561186b578160200160208202803683370190505b509050600060015b8381116118f557600081815260a2602052604090206006015460ff161515600114156118e357600081815260a2602052604090205483518490849081106118ca57634e487b7160e01b600052603260045260246000fd5b6020908102919091010152816118df81612df7565b9250505b806118ed81612df7565b915050611873565b50909392505050565b33600090815260a7602052604090205460ff168061192657506097546001600160a01b031633145b6119635760405162461bcd60e51b815260206004820152600e60248201526d139bdd08185d5d1a1bdc9a5e995960921b60448201526064016108d0565b600060a2600084815260200190815260200160002060405180610100016040529081600082015481526020016001820160009054906101000a90046001600160a01b03166001600160a01b03166001600160a01b031681526020016002820160009054906101000a90046001600160a01b03166001600160a01b03166001600160a01b031681526020016003820154815260200160048201548152602001600582015481526020016006820160009054906101000a900460ff161515151581526020016007820154815250509050818160e00181815250508060a260008581526020019081526020016000206000820151816000015560208201518160010160006101000a8154816001600160a01b0302191690836001600160a01b0316021790555060408201518160020160006101000a8154816001600160a01b0302191690836001600160a01b03160217905550606082015181600301556080820151816004015560a0820151816005015560c08201518160060160006101000a81548160ff02191690831515021790555060e08201518160070155905050505050565b600081815260696020526040902080546001600160a01b0319166001600160a01b0384169081179091558190611b3882610ede565b6001600160a01b03167f8c5be1e5ebec7d5bd14f71427d1e84f3dd0314c0f7b2291e5b200ac8c7c3b92560405160405180910390a45050565b6000818152606760205260408120546001600160a01b0316611bea5760405162461bcd60e51b815260206004820152602c60248201527f4552433732313a206f70657261746f7220717565727920666f72206e6f6e657860448201526b34b9ba32b73a103a37b5b2b760a11b60648201526084016108d0565b6000611bf583610ede565b9050806001600160a01b0316846001600160a01b03161480611c305750836001600160a01b0316611c258461085b565b6001600160a01b0316145b80611c6057506001600160a01b038082166000908152606a602090815260408083209388168352929052205460ff165b949350505050565b826001600160a01b0316611c7b82610ede565b6001600160a01b031614611cdf5760405162461bcd60e51b815260206004820152602560248201527f4552433732313a207472616e736665722066726f6d20696e636f72726563742060448201526437bbb732b960d91b60648201526084016108d0565b6001600160a01b038216611d415760405162461bcd60e51b8152602060048201526024808201527f4552433732313a207472616e7366657220746f20746865207a65726f206164646044820152637265737360e01b60648201526084016108d0565b611d4c838383612076565b611d57600082611b03565b6001600160a01b0383166000908152606860205260408120805460019290611d80908490612d79565b90915550506001600160a01b0382166000908152606860205260408120805460019290611dae908490612d2e565b909155505060008181526067602052604080822080546001600160a01b0319166001600160a01b0386811691821790925591518493918716917fddf252ad1be2c89b69c2b068fc378daa952ba7f163c4a11628f55a4df523b3ef91a4505050565b610eda82826040518060200160405280600081525061224a565b606081611e4d5750506040805180820190915260018152600360fc1b602082015290565b8160005b8115611e775780611e6181612df7565b9150611e709050600a83612d46565b9150611e51565b60008167ffffffffffffffff811115611ea057634e487b7160e01b600052604160045260246000fd5b6040519080825280601f01601f191660200182016040528015611eca576020820181803683370190505b5090505b8415611c6057611edf600183612d79565b9150611eec600a86612e12565b611ef7906030612d2e565b60f81b818381518110611f1a57634e487b7160e01b600052603260045260246000fd5b60200101906001600160f81b031916908160001a905350611f3c600a86612d46565b9450611ece565b816001600160a01b0316836001600160a01b03161415611fa55760405162461bcd60e51b815260206004820152601960248201527f4552433732313a20617070726f766520746f2063616c6c65720000000000000060448201526064016108d0565b6001600160a01b038381166000818152606a6020908152604080832094871680845294825291829020805460ff191686151590811790915591519182527f17307eab39ab6107e8899845ad3d59bd9653f200f220920489ca2b5937696c31910160405180910390a3505050565b600054610100900460ff166120395760405162461bcd60e51b81526004016108d090612ce3565b610eda828261227d565b61204e848484611c68565b61205a848484846122cb565b6117565760405162461bcd60e51b81526004016108d090612c40565b600081815260a26020908152604091829020825161010081018452815481526001808301546001600160a01b03908116948301949094526003830154606083015260048301546080830152600583015460a08301818152600685015460ff16151560c085015260079094015460e08401529387169482019490945292916120fe908390612d2e565b905250600060c0820181815283825260a2602090815260409283902084518155908401516001820180546001600160a01b03199081166001600160a01b03938416179091559385015160028301805490951690821617909355606084015160038201556080840151600482015560a08401516005820155905160068201805460ff191691151591909117905560e083015160079091015584166121e8576121e38260a58054600083815260a660205260408120829055600182018355919091527fb29a2b3b6f2ff1b765777a231725941da5072cc4fcc30ac4a2ce09706e8ddeff0155565b61220b565b826001600160a01b0316846001600160a01b03161461220b5761220b84836123d8565b6001600160a01b0383166122275761222282612475565b611756565b836001600160a01b0316836001600160a01b03161461175657611756838361254e565b6122548383612592565b61226160008484846122cb565b610a065760405162461bcd60e51b81526004016108d090612c40565b600054610100900460ff166122a45760405162461bcd60e51b81526004016108d090612ce3565b81516122b79060659060208501906126e0565b508051610a069060669060208401906126e0565b60006001600160a01b0384163b156123cd57604051630a85bd0160e11b81526001600160a01b0385169063150b7a029061230f903390899088908890600401612bac565b602060405180830381600087803b15801561232957600080fd5b505af1925050508015612359575060408051601f3d908101601f1916820190925261235691810190612a51565b60015b6123b3573d808015612387576040519150601f19603f3d011682016040523d82523d6000602084013e61238c565b606091505b5080516123ab5760405162461bcd60e51b81526004016108d090612c40565b805181602001fd5b6001600160e01b031916630a85bd0160e11b149050611c60565b506001949350505050565b600060016123e584610f55565b6123ef9190612d79565b600083815260a46020526040902054909150808214612442576001600160a01b038416600090815260a360209081526040808320858452825280832054848452818420819055835260a490915290208190555b50600091825260a4602090815260408084208490556001600160a01b03909416835260a381528383209183525290812055565b60a55460009061248790600190612d79565b600083815260a6602052604081205460a580549394509092849081106124bd57634e487b7160e01b600052603260045260246000fd5b906000526020600020015490508060a583815481106124ec57634e487b7160e01b600052603260045260246000fd5b600091825260208083209091019290925582815260a6909152604080822084905585825281205560a580548061253257634e487b7160e01b600052603160045260246000fd5b6001900381819060005260206000200160009055905550505050565b600061255983610f55565b6001600160a01b03909316600090815260a360209081526040808320868452825280832085905593825260a49052919091209190915550565b6001600160a01b0382166125e85760405162461bcd60e51b815260206004820181905260248201527f4552433732313a206d696e7420746f20746865207a65726f206164647265737360448201526064016108d0565b6000818152606760205260409020546001600160a01b03161561264d5760405162461bcd60e51b815260206004820152601c60248201527f4552433732313a20746f6b656e20616c7265616479206d696e7465640000000060448201526064016108d0565b61265960008383612076565b6001600160a01b0382166000908152606860205260408120805460019290612682908490612d2e565b909155505060008181526067602052604080822080546001600160a01b0319166001600160a01b03861690811790915590518392907fddf252ad1be2c89b69c2b068fc378daa952ba7f163c4a11628f55a4df523b3ef908290a45050565b8280546126ec90612dbc565b90600052602060002090601f01602090048101928261270e5760008555612754565b82601f1061272757805160ff1916838001178555612754565b82800160010185558215612754579182015b82811115612754578251825591602001919060010190612739565b50612760929150612764565b5090565b5b808211156127605760008155600101612765565b600067ffffffffffffffff8084111561279457612794612e52565b604051601f8501601f19908116603f011681019082821181831017156127bc576127bc612e52565b816040528093508581528686860111156127d557600080fd5b858560208301376000602087830101525050509392505050565b80356001600160a01b038116811461280657600080fd5b919050565b8035801515811461280657600080fd5b600082601f83011261282b578081fd5b61283a83833560208501612779565b9392505050565b600060208284031215612852578081fd5b61283a826127ef565b6000806040838503121561286d578081fd5b612876836127ef565b9150612884602084016127ef565b90509250929050565b6000806000606084860312156128a1578081fd5b6128aa846127ef565b92506128b8602085016127ef565b9150604084013590509250925092565b600080600080608085870312156128dd578081fd5b6128e6856127ef565b93506128f4602086016127ef565b925060408501359150606085013567ffffffffffffffff811115612916578182fd5b8501601f81018713612926578182fd5b61293587823560208401612779565b91505092959194509250565b600080600080600080600080610100898b03121561295d578384fd5b612966896127ef565b975061297460208a016127ef565b96506040890135955060608901359450608089013567ffffffffffffffff81111561299d578485fd5b6129a98b828c0161281b565b9450506129b860a08a016127ef565b92506129c660c08a0161280b565b91506129d460e08a0161280b565b90509295985092959890939650565b600080604083850312156129f5578182fd5b6129fe836127ef565b91506128846020840161280b565b60008060408385031215612a1e578182fd5b612a27836127ef565b946020939093013593505050565b600060208284031215612a46578081fd5b813561283a81612e68565b600060208284031215612a62578081fd5b815161283a81612e68565b600060208284031215612a7e578081fd5b813567ffffffffffffffff811115612a94578182fd5b611c608482850161281b565b600060208284031215612ab1578081fd5b5035919050565b60008060408385031215612aca578182fd5b50508035926020909101359150565b600080600060608486031215612aed578081fd5b8335925060208401359150612b046040850161280b565b90509250925092565b60008151808452612b25816020860160208601612d90565b601f01601f19169290920160200192915050565b7f697066733a2f2f516d536742704156594d394a3742366a643831455a744856398152756f584a566b4d644c79584e55684e394155566e52782f60501b602082015260008251612b90816036850160208701612d90565b64173539b7b760d91b6036939091019283015250603b01919050565b6001600160a01b0385811682528416602082015260408101839052608060608201819052600090612bdf90830184612b0d565b9695505050505050565b6020808252825182820181905260009190848201906040850190845b81811015612c2157835183529284019291840191600101612c05565b50909695505050505050565b60208152600061283a6020830184612b0d565b60208082526032908201527f4552433732313a207472616e7366657220746f206e6f6e20455243373231526560408201527131b2b4bb32b91034b6b83632b6b2b73a32b960711b606082015260800190565b60208082526031908201527f4552433732313a207472616e736665722063616c6c6572206973206e6f74206f6040820152701ddb995c881b9bdc88185c1c1c9bdd9959607a1b606082015260800190565b6020808252602b908201527f496e697469616c697a61626c653a20636f6e7472616374206973206e6f74206960408201526a6e697469616c697a696e6760a81b606082015260800190565b60008219821115612d4157612d41612e26565b500190565b600082612d5557612d55612e3c565b500490565b6000816000190483118215151615612d7457612d74612e26565b500290565b600082821015612d8b57612d8b612e26565b500390565b60005b83811015612dab578181015183820152602001612d93565b838111156117565750506000910152565b600181811c90821680612dd057607f821691505b60208210811415612df157634e487b7160e01b600052602260045260246000fd5b50919050565b6000600019821415612e0b57612e0b612e26565b5060010190565b600082612e2157612e21612e3c565b500690565b634e487b7160e01b600052601160045260246000fd5b634e487b7160e01b600052601260045260246000fd5b634e487b7160e01b600052604160045260246000fd5b6001600160e01b031981168114612e7e57600080fd5b5056fea2646970667358221220dac9d885704f10c541baa30dff0827bd6c6d266bba59a9baab248f83193b023664736f6c63430008040033",
  "linkReferences": {},
  "deployedLinkReferences": {}
}