{
  "_format": "hh-sol-artifact-1",
  "contractName": "EggV2",
  "sourceName": "contracts/EggV2.sol",
  "abi": [
    {
      "inputs": [
        {
          "internalType": "address",
          "name": "_chiknContract",
          "type": "address"
        }
      ],
      "stateMutability": "nonpayable",
      "type": "constructor"
    },
    {
      "anonymous": false,
      "inputs": [
        {
          "indexed": true,
          "internalType": "address",
          "name": "owner",
          "type": "address"
        },
        {
          "indexed": true,
          "internalType": "address",
          "name": "spender",
          "type": "address"
        },
        {
          "indexed": false,
          "internalType": "uint256",
          "name": "value",
          "type": "uint256"
        }
      ],
      "name": "Approval",
      "type": "event"
    },
    {
      "anonymous": false,
      "inputs": [
        {
          "indexed": false,
          "internalType": "address",
          "name": "owner",
          "type": "address"
        },
        {
          "indexed": false,
          "internalType": "uint256",
          "name": "eggsAmt",
          "type": "uint256"
        }
      ],
      "name": "Burned",
      "type": "event"
    },
    {
      "anonymous": false,
      "inputs": [
        {
          "indexed": false,
          "internalType": "address",
          "name": "owner",
          "type": "address"
        },
        {
          "indexed": false,
          "internalType": "uint256",
          "name": "eggsAmt",
          "type": "uint256"
        }
      ],
      "name": "Minted",
      "type": "event"
    },
    {
      "anonymous": false,
      "inputs": [
        {
          "indexed": true,
          "internalType": "address",
          "name": "previousOwner",
          "type": "address"
        },
        {
          "indexed": true,
          "internalType": "address",
          "name": "newOwner",
          "type": "address"
        }
      ],
      "name": "OwnershipTransferred",
      "type": "event"
    },
    {
      "anonymous": false,
      "inputs": [
        {
          "indexed": false,
          "internalType": "uint256",
          "name": "tid",
          "type": "uint256"
        },
        {
          "indexed": false,
          "internalType": "uint256",
          "name": "ts",
          "type": "uint256"
        }
      ],
      "name": "Staked",
      "type": "event"
    },
    {
      "anonymous": false,
      "inputs": [
        {
          "indexed": true,
          "internalType": "address",
          "name": "from",
          "type": "address"
        },
        {
          "indexed": true,
          "internalType": "address",
          "name": "to",
          "type": "address"
        },
        {
          "indexed": false,
          "internalType": "uint256",
          "name": "value",
          "type": "uint256"
        }
      ],
      "name": "Transfer",
      "type": "event"
    },
    {
      "anonymous": false,
      "inputs": [
        {
          "indexed": false,
          "internalType": "uint256",
          "name": "tid",
          "type": "uint256"
        },
        {
          "indexed": false,
          "internalType": "uint256",
          "name": "ts",
          "type": "uint256"
        }
      ],
      "name": "UnStaked",
      "type": "event"
    },
    {
      "inputs": [],
      "name": "BASE_HOLDER_EGGS",
      "outputs": [
        {
          "internalType": "uint256",
          "name": "",
          "type": "uint256"
        }
      ],
      "stateMutability": "view",
      "type": "function"
    },
    {
      "inputs": [],
      "name": "CHIKN_CONTRACT",
      "outputs": [
        {
          "internalType": "address",
          "name": "",
          "type": "address"
        }
      ],
      "stateMutability": "view",
      "type": "function"
    },
    {
      "inputs": [],
      "name": "COOLDOWN_BASE",
      "outputs": [
        {
          "internalType": "uint256",
          "name": "",
          "type": "uint256"
        }
      ],
      "stateMutability": "view",
      "type": "function"
    },
    {
      "inputs": [],
      "name": "COOLDOWN_BASE_FACTOR",
      "outputs": [
        {
          "internalType": "uint256",
          "name": "",
          "type": "uint256"
        }
      ],
      "stateMutability": "view",
      "type": "function"
    },
    {
      "inputs": [],
      "name": "COOLDOWN_CD_IN_SECS",
      "outputs": [
        {
          "internalType": "uint256",
          "name": "",
          "type": "uint256"
        }
      ],
      "stateMutability": "view",
      "type": "function"
    },
    {
      "inputs": [],
      "name": "COOLDOWN_RATE",
      "outputs": [
        {
          "internalType": "uint256",
          "name": "",
          "type": "uint256"
        }
      ],
      "stateMutability": "view",
      "type": "function"
    },
    {
      "inputs": [],
      "name": "EGGS_PER_DAY_PER_KG",
      "outputs": [
        {
          "internalType": "uint256",
          "name": "",
          "type": "uint256"
        }
      ],
      "stateMutability": "view",
      "type": "function"
    },
    {
      "inputs": [],
      "name": "LEVELING_BASE",
      "outputs": [
        {
          "internalType": "uint256",
          "name": "",
          "type": "uint256"
        }
      ],
      "stateMutability": "view",
      "type": "function"
    },
    {
      "inputs": [],
      "name": "LEVELING_RATE",
      "outputs": [
        {
          "internalType": "uint256",
          "name": "",
          "type": "uint256"
        }
      ],
      "stateMutability": "view",
      "type": "function"
    },
    {
      "inputs": [
        {
          "internalType": "address",
          "name": "_toAdd",
          "type": "address"
        }
      ],
      "name": "addAuthorized",
      "outputs": [],
      "stateMutability": "nonpayable",
      "type": "function"
    },
    {
      "inputs": [
        {
          "internalType": "uint256",
          "name": "from",
          "type": "uint256"
        },
        {
          "internalType": "uint256",
          "name": "to",
          "type": "uint256"
        },
        {
          "internalType": "uint256",
          "name": "amountOfEgg",
          "type": "uint256"
        }
      ],
      "name": "airdropToExistingHolder",
      "outputs": [],
      "stateMutability": "nonpayable",
      "type": "function"
    },
    {
      "inputs": [
        {
          "internalType": "address",
          "name": "owner",
          "type": "address"
        },
        {
          "internalType": "address",
          "name": "spender",
          "type": "address"
        }
      ],
      "name": "allowance",
      "outputs": [
        {
          "internalType": "uint256",
          "name": "",
          "type": "uint256"
        }
      ],
      "stateMutability": "view",
      "type": "function"
    },
    {
      "inputs": [
        {
          "internalType": "address",
          "name": "spender",
          "type": "address"
        },
        {
          "internalType": "uint256",
          "name": "amount",
          "type": "uint256"
        }
      ],
      "name": "approve",
      "outputs": [
        {
          "internalType": "bool",
          "name": "",
          "type": "bool"
        }
      ],
      "stateMutability": "nonpayable",
      "type": "function"
    },
    {
      "inputs": [
        {
          "internalType": "address",
          "name": "",
          "type": "address"
        }
      ],
      "name": "authorized",
      "outputs": [
        {
          "internalType": "bool",
          "name": "",
          "type": "bool"
        }
      ],
      "stateMutability": "view",
      "type": "function"
    },
    {
      "inputs": [
        {
          "internalType": "address",
          "name": "account",
          "type": "address"
        }
      ],
      "name": "balanceOf",
      "outputs": [
        {
          "internalType": "uint256",
          "name": "",
          "type": "uint256"
        }
      ],
      "stateMutability": "view",
      "type": "function"
    },
    {
      "inputs": [
        {
          "internalType": "address",
          "name": "sender",
          "type": "address"
        },
        {
          "internalType": "uint256",
          "name": "eggsAmount",
          "type": "uint256"
        }
      ],
      "name": "burnEggs",
      "outputs": [],
      "stateMutability": "nonpayable",
      "type": "function"
    },
    {
      "inputs": [
        {
          "internalType": "uint256",
          "name": "kg",
          "type": "uint256"
        }
      ],
      "name": "checkSkipCoolingOffAmt",
      "outputs": [
        {
          "internalType": "uint256",
          "name": "",
          "type": "uint256"
        }
      ],
      "stateMutability": "view",
      "type": "function"
    },
    {
      "inputs": [
        {
          "internalType": "uint256[]",
          "name": "tokenIds",
          "type": "uint256[]"
        }
      ],
      "name": "claimEggs",
      "outputs": [],
      "stateMutability": "nonpayable",
      "type": "function"
    },
    {
      "inputs": [
        {
          "internalType": "uint256",
          "name": "tokenId",
          "type": "uint256"
        }
      ],
      "name": "claimableView",
      "outputs": [
        {
          "internalType": "uint256",
          "name": "",
          "type": "uint256"
        }
      ],
      "stateMutability": "view",
      "type": "function"
    },
    {
      "inputs": [
        {
          "internalType": "uint256",
          "name": "kg",
          "type": "uint256"
        }
      ],
      "name": "cooldownRate",
      "outputs": [
        {
          "internalType": "uint256",
          "name": "",
          "type": "uint256"
        }
      ],
      "stateMutability": "view",
      "type": "function"
    },
    {
      "inputs": [],
      "name": "decimals",
      "outputs": [
        {
          "internalType": "uint8",
          "name": "",
          "type": "uint8"
        }
      ],
      "stateMutability": "view",
      "type": "function"
    },
    {
      "inputs": [
        {
          "internalType": "address",
          "name": "spender",
          "type": "address"
        },
        {
          "internalType": "uint256",
          "name": "subtractedValue",
          "type": "uint256"
        }
      ],
      "name": "decreaseAllowance",
      "outputs": [
        {
          "internalType": "bool",
          "name": "",
          "type": "bool"
        }
      ],
      "stateMutability": "nonpayable",
      "type": "function"
    },
    {
      "inputs": [
        {
          "internalType": "uint256",
          "name": "tokenId",
          "type": "uint256"
        },
        {
          "internalType": "uint256",
          "name": "feedAmount",
          "type": "uint256"
        }
      ],
      "name": "feedChikn",
      "outputs": [],
      "stateMutability": "nonpayable",
      "type": "function"
    },
    {
      "inputs": [
        {
          "internalType": "uint256",
          "name": "kg",
          "type": "uint256"
        }
      ],
      "name": "feedLevelingRate",
      "outputs": [
        {
          "internalType": "uint256",
          "name": "",
          "type": "uint256"
        }
      ],
      "stateMutability": "view",
      "type": "function"
    },
    {
      "inputs": [
        {
          "internalType": "address",
          "name": "spender",
          "type": "address"
        },
        {
          "internalType": "uint256",
          "name": "addedValue",
          "type": "uint256"
        }
      ],
      "name": "increaseAllowance",
      "outputs": [
        {
          "internalType": "bool",
          "name": "",
          "type": "bool"
        }
      ],
      "stateMutability": "nonpayable",
      "type": "function"
    },
    {
      "inputs": [
        {
          "internalType": "uint256",
          "name": "tid",
          "type": "uint256"
        }
      ],
      "name": "levelUpChikn",
      "outputs": [],
      "stateMutability": "nonpayable",
      "type": "function"
    },
    {
      "inputs": [
        {
          "internalType": "address",
          "name": "sender",
          "type": "address"
        },
        {
          "internalType": "uint256",
          "name": "amount",
          "type": "uint256"
        }
      ],
      "name": "mintEgg",
      "outputs": [],
      "stateMutability": "nonpayable",
      "type": "function"
    },
    {
      "inputs": [],
      "name": "myClaimableView",
      "outputs": [
        {
          "internalType": "uint256",
          "name": "",
          "type": "uint256"
        }
      ],
      "stateMutability": "view",
      "type": "function"
    },
    {
      "inputs": [],
      "name": "myStakedChikn",
      "outputs": [
        {
          "internalType": "uint256[]",
          "name": "",
          "type": "uint256[]"
        }
      ],
      "stateMutability": "view",
      "type": "function"
    },
    {
      "inputs": [],
      "name": "name",
      "outputs": [
        {
          "internalType": "string",
          "name": "",
          "type": "string"
        }
      ],
      "stateMutability": "view",
      "type": "function"
    },
    {
      "inputs": [],
      "name": "owner",
      "outputs": [
        {
          "internalType": "address",
          "name": "",
          "type": "address"
        }
      ],
      "stateMutability": "view",
      "type": "function"
    },
    {
      "inputs": [
        {
          "internalType": "uint256",
          "name": "from",
          "type": "uint256"
        },
        {
          "internalType": "uint256",
          "name": "to",
          "type": "uint256"
        }
      ],
      "name": "rebalanceEggClaimableToUserWallet",
      "outputs": [],
      "stateMutability": "nonpayable",
      "type": "function"
    },
    {
      "inputs": [
        {
          "internalType": "address",
          "name": "_toRemove",
          "type": "address"
        }
      ],
      "name": "removeAuthorized",
      "outputs": [],
      "stateMutability": "nonpayable",
      "type": "function"
    },
    {
      "inputs": [],
      "name": "renounceOwnership",
      "outputs": [],
      "stateMutability": "nonpayable",
      "type": "function"
    },
    {
      "inputs": [
        {
          "internalType": "uint256",
          "name": "tokenId",
          "type": "uint256"
        },
        {
          "internalType": "uint256",
          "name": "eggAmt",
          "type": "uint256"
        }
      ],
      "name": "skipCoolingOff",
      "outputs": [],
      "stateMutability": "nonpayable",
      "type": "function"
    },
    {
      "inputs": [
        {
          "internalType": "uint256[]",
          "name": "tids",
          "type": "uint256[]"
        }
      ],
      "name": "stake",
      "outputs": [],
      "stateMutability": "nonpayable",
      "type": "function"
    },
    {
      "inputs": [
        {
          "internalType": "uint256",
          "name": "",
          "type": "uint256"
        }
      ],
      "name": "stakedChikn",
      "outputs": [
        {
          "internalType": "uint24",
          "name": "kg",
          "type": "uint24"
        },
        {
          "internalType": "uint32",
          "name": "sinceTs",
          "type": "uint32"
        },
        {
          "internalType": "uint32",
          "name": "lastSkippedTs",
          "type": "uint32"
        },
        {
          "internalType": "uint48",
          "name": "eatenAmount",
          "type": "uint48"
        },
        {
          "internalType": "uint32",
          "name": "cooldownTs",
          "type": "uint32"
        }
      ],
      "stateMutability": "view",
      "type": "function"
    },
    {
      "inputs": [],
      "name": "symbol",
      "outputs": [
        {
          "internalType": "string",
          "name": "",
          "type": "string"
        }
      ],
      "stateMutability": "view",
      "type": "function"
    },
    {
      "inputs": [],
      "name": "totalKg",
      "outputs": [
        {
          "internalType": "uint40",
          "name": "",
          "type": "uint40"
        }
      ],
      "stateMutability": "view",
      "type": "function"
    },
    {
      "inputs": [],
      "name": "totalStakedChikn",
      "outputs": [
        {
          "internalType": "uint16",
          "name": "",
          "type": "uint16"
        }
      ],
      "stateMutability": "view",
      "type": "function"
    },
    {
      "inputs": [],
      "name": "totalSupply",
      "outputs": [
        {
          "internalType": "uint256",
          "name": "",
          "type": "uint256"
        }
      ],
      "stateMutability": "view",
      "type": "function"
    },
    {
      "inputs": [
        {
          "internalType": "address",
          "name": "to",
          "type": "address"
        },
        {
          "internalType": "uint256",
          "name": "amount",
          "type": "uint256"
        }
      ],
      "name": "transfer",
      "outputs": [
        {
          "internalType": "bool",
          "name": "",
          "type": "bool"
        }
      ],
      "stateMutability": "nonpayable",
      "type": "function"
    },
    {
      "inputs": [
        {
          "internalType": "address",
          "name": "from",
          "type": "address"
        },
        {
          "internalType": "address",
          "name": "to",
          "type": "address"
        },
        {
          "internalType": "uint256",
          "name": "amount",
          "type": "uint256"
        }
      ],
      "name": "transferFrom",
      "outputs": [
        {
          "internalType": "bool",
          "name": "",
          "type": "bool"
        }
      ],
      "stateMutability": "nonpayable",
      "type": "function"
    },
    {
      "inputs": [
        {
          "internalType": "address",
          "name": "newOwner",
          "type": "address"
        }
      ],
      "name": "transferOwnership",
      "outputs": [],
      "stateMutability": "nonpayable",
      "type": "function"
    },
    {
      "inputs": [
        {
          "internalType": "uint256[]",
          "name": "tids",
          "type": "uint256[]"
        }
      ],
      "name": "unstake",
      "outputs": [],
      "stateMutability": "nonpayable",
      "type": "function"
    },
    {
      "inputs": [
        {
          "internalType": "uint256",
          "name": "a",
          "type": "uint256"
        },
        {
          "internalType": "uint256",
          "name": "b",
          "type": "uint256"
        },
        {
          "internalType": "uint256",
          "name": "c",
          "type": "uint256"
        },
        {
          "internalType": "uint256",
          "name": "d",
          "type": "uint256"
        },
        {
          "internalType": "uint256",
          "name": "e",
          "type": "uint256"
        }
      ],
      "name": "updateSkipCooldownValues",
      "outputs": [],
      "stateMutability": "nonpayable",
      "type": "function"
    },
    {
      "inputs": [
        {
          "internalType": "uint256[]",
          "name": "tids",
          "type": "uint256[]"
        }
      ],
      "name": "withdrawAllChiknAndClaim",
      "outputs": [],
      "stateMutability": "nonpayable",
      "type": "function"
    }
  ],
  "bytecode": "0x60c060405260096080819052686368696b6e2065676760b81b60a09081526200002c9160079190620002bd565b506040805180820190915260038082526245474760e81b60209092019182526200005991600891620002bd565b50670a688906bd8b0000600a556703782dace9d90000600b5568056bc75e2d63100000600c5568056bc75e2d63100000600d5562015180600e556019600f556002601055610e10601155348015620000b057600080fd5b506040516200381338038062003813833981016040819052620000d39162000363565b60078054620000e29062000393565b80601f0160208091040260200160405190810160405280929190818152602001828054620001109062000393565b8015620001615780601f10620001355761010080835404028352916020019162000161565b820191906000526020600020905b8154815290600101906020018083116200014357829003601f168201915b505050505060088054620001759062000393565b80601f0160208091040260200160405190810160405280929190818152602001828054620001a39062000393565b8015620001f45780601f10620001c857610100808354040283529160200191620001f4565b820191906000526020600020905b815481529060010190602001808311620001d657829003601f168201915b505084516200020e935060039250602086019150620002bd565b50805162000224906004906020840190620002bd565b505050620002416200023b6200026760201b60201c565b6200026b565b600980546001600160a01b0319166001600160a01b0392909216919091179055620003d0565b3390565b600580546001600160a01b038381166001600160a01b0319831681179093556040519116919082907f8be0079c531659141344cd1fd0a4f28419497f9722a3daafe3b4186f6b6457e090600090a35050565b828054620002cb9062000393565b90600052602060002090601f016020900481019282620002ef57600085556200033a565b82601f106200030a57805160ff19168380011785556200033a565b828001600101855582156200033a579182015b828111156200033a5782518255916020019190600101906200031d565b50620003489291506200034c565b5090565b5b808211156200034857600081556001016200034d565b60006020828403121562000375578081fd5b81516001600160a01b03811681146200038c578182fd5b9392505050565b600181811c90821680620003a857607f821691505b60208210811415620003ca57634e487b7160e01b600052602260045260246000fd5b50919050565b61343380620003e06000396000f3fe608060405234801561001057600080fd5b50600436106102945760003560e01c80634c1a001211610167578063a5b65da7116100ce578063cf1c316a11610087578063cf1c316a146105f3578063d81aa0d214610606578063dd62ed3e14610619578063e449f34114610652578063f2fde38b14610665578063f86457531461067857600080fd5b8063a5b65da714610585578063a9059cbb14610598578063b00cbdec146105ab578063b9181611146105b4578063bab3384d146105d7578063c00b346e146105e057600080fd5b80638b100bc5116101205780638b100bc5146105345780638da5cb5b14610547578063902367aa1461055857806395d89b41146105615780639beeba1b14610569578063a457c2d71461057257600080fd5b80634c1a00121461049d5780635a8c2642146104c85780635ab30dee146104dd57806370a08231146104f0578063715018a614610519578063757522911461052157600080fd5b80631e54ad001161020b57806340f964dd116101c457806340f964dd146103e057806343293ac5146103f3578063433804d31461044557806346da8ac91461046f5780634791284b14610482578063485d7d941461048a57600080fd5b80631e54ad001461037c5780631f6d15bd1461038f57806323b872dd14610398578063313ce567146103ab57806336d1f8a1146103ba57806339509351146103cd57600080fd5b806306125cb91161025d57806306125cb91461030d57806306fdde0314610320578063095ea7b3146103355780630fbf0a9314610358578063116be18e1461036b57806318160ddd1461037457600080fd5b8062f75f7c146102995780630185e491146102bf57806303bb5f02146102c857806305973b1d146102d1578063060df8c4146102f8575b600080fd5b6102ac6102a7366004612ecd565b61068b565b6040519081526020015b60405180910390f35b6102ac600b5481565b6102ac600e5481565b6012546102e29064ffffffffff1681565b60405164ffffffffff90911681526020016102b6565b61030b610306366004612fa0565b6106ac565b005b61030b61031b366004612f7f565b6107b5565b610328610a5f565b6040516102b69190613049565b610348610343366004612e32565b610af1565b60405190151581526020016102b6565b61030b610366366004612e5d565b610b09565b6102ac60105481565b6002546102ac565b61030b61038a366004612e32565b610b5a565b6102ac600d5481565b6103486103a6366004612df2565b610b68565b604051601281526020016102b6565b61030b6103c8366004612f7f565b610b8c565b6103486103db366004612e32565b610dd4565b6102ac6103ee366004612ecd565b610e13565b610406610401366004612ecd565b610f1d565b6040805162ffffff909616865263ffffffff94851660208701529284169285019290925265ffffffffffff16606084015216608082015260a0016102b6565b60125461045c9065010000000000900461ffff1681565b60405161ffff90911681526020016102b6565b61030b61047d366004612f7f565b610f6d565b6102ac6111a6565b61030b610498366004612d7b565b6113bd565b6009546104b0906001600160a01b031681565b6040516001600160a01b0390911681526020016102b6565b6104d0611431565b6040516102b69190613005565b61030b6104eb366004612fcb565b61167d565b6102ac6104fe366004612d7b565b6001600160a01b031660009081526020819052604090205490565b61030b6116be565b61030b61052f366004612e32565b6116f4565b6102ac610542366004612ecd565b6117b9565b6005546001600160a01b03166104b0565b6102ac60115481565b6103286117e1565b6102ac600a5481565b610348610580366004612e32565b6117f0565b61030b610593366004612e5d565b611882565b6103486105a6366004612e32565b611896565b6102ac600c5481565b6103486105c2366004612d7b565b60066020526000908152604090205460ff1681565b6102ac600f5481565b6102ac6105ee366004612ecd565b6118a4565b61030b610601366004612d7b565b6118b5565b61030b610614366004612e5d565b611916565b6102ac610627366004612dba565b6001600160a01b03918216600090815260016020908152604080832093909416825291909152205490565b61030b610660366004612e5d565b61188c565b61030b610673366004612d7b565b611920565b61030b610686366004612ecd565b6119bb565b600d5460009061069c6064846131f6565b6106a691906132f5565b92915050565b6005546001600160a01b031633146106df5760405162461bcd60e51b81526004016106d69061309c565b60405180910390fd5b6009546001600160a01b0316835b8381116107ae576040516331a9108f60e11b8152600481018290526000906001600160a01b03841690636352211e9060240160206040518083038186803b15801561073757600080fd5b505afa15801561074b573d6000803e3d6000fd5b505050506040513d601f19601f8201168201806040525081019061076f9190612d9e565b90506001600160a01b0381161561079b5761079b8161079686670de0b6b3a76400006132f5565b611cc0565b50806107a6816133a1565b9150506106ed565b5050505050565b6000601383620186a181106107da57634e487b7160e01b600052603260045260246000fd5b6040805160a081018252929091015462ffffff811680845263ffffffff6301000000830481166020860152600160381b830481169385019390935265ffffffffffff600160581b8304166060850152600160881b90910490911660808301529091506108585760405162461bcd60e51b81526004016106d6906130f4565b336000908152602081905260409020544290838110156108ba5760405162461bcd60e51b815260206004820152601860248201527f4e4f5420454e4f5547482045474720494e2057414c4c4554000000000000000060448201526064016106d6565b82516108ca9062ffffff1661068b565b8410156109125760405162461bcd60e51b815260206004820152601660248201527504e4f5420454e4f5547482045474720544f20534b49560541b60448201526064016106d6565b8163ffffffff16600e54846040015163ffffffff16610931919061315c565b111561097f5760405162461bcd60e51b815260206004820152601860248201527f424c4f434b4544204259203234485220434f4f4c444f574e000000000000000060448201526064016106d6565b6109893385611d9f565b63ffffffff821660808401819052604084015282601386620186a181106109c057634e487b7160e01b600052603260045260246000fd5b82519101805460208401516040850151606086015160809096015163ffffffff908116600160881b0263ffffffff60881b1965ffffffffffff909816600160581b0265ffffffffffff60581b19938316600160381b0293909316600160381b600160881b03199290941663010000000266ffffffffffffff1990951662ffffff9097169690961793909317929092161717929092161790555050505050565b606060038054610a6e9061336c565b80601f0160208091040260200160405190810160405280929190818152602001828054610a9a9061336c565b8015610ae75780601f10610abc57610100808354040283529160200191610ae7565b820191906000526020600020905b815481529060010190602001808311610aca57829003601f168201915b5050505050905090565b600033610aff818585611e47565b5060019392505050565b60005b81811015610b5557610b43838383818110610b3757634e487b7160e01b600052603260045260246000fd5b90506020020135611f6b565b80610b4d816133a1565b915050610b0c565b505050565b610b648282611d9f565b5050565b600033610b7685828561234f565b610b818585856123db565b506001949350505050565b3360009081526006602052604090205460ff1680610bc3575033610bb86005546001600160a01b031690565b6001600160a01b0316145b610c005760405162461bcd60e51b815260206004820152600e60248201526d139bdd08185d5d1a1bdc9a5e995960921b60448201526064016106d6565b6000601383620186a18110610c2557634e487b7160e01b600052603260045260246000fd5b6040805160a081018252929091015462ffffff811680845263ffffffff6301000000830481166020860152600160381b830481169385019390935265ffffffffffff600160581b8304166060850152600160881b9091049091166080830152909150610ca35760405162461bcd60e51b81526004016106d6906130f4565b60008211610ce55760405162461bcd60e51b815260206004820152600f60248201526e1393d512125391c81513c811915151608a1b60448201526064016106d6565b6060810151610cfc670de0b6b3a7640000846131f6565b610d0691906131b3565b65ffffffffffff16606082015280601384620186a18110610d3757634e487b7160e01b600052603260045260246000fd5b82519101805460208401516040850151606086015160809096015163ffffffff908116600160881b0263ffffffff60881b1965ffffffffffff909816600160581b0265ffffffffffff60581b19938316600160381b0293909316600160381b600160881b03199290941663010000000266ffffffffffffff1990951662ffffff909716969096179390931792909216171792909216179055505050565b3360008181526001602090815260408083206001600160a01b0387168452909152812054909190610aff9082908690610e0e90879061315c565b611e47565b600080601383620186a18110610e3957634e487b7160e01b600052603260045260246000fd5b6040805160a081018252929091015462ffffff811680845263ffffffff6301000000830481166020860152600160381b830481169385019390935265ffffffffffff600160581b8304166060850152600160881b909104909116608083015290915015610f0e576000600a5460648360000151610eb691906131d4565b62ffffff16600b54610ec891906132f5565b610ed2919061315c565b90506000826020015163ffffffff1642610eec9190613337565b9050610efb62015180836131f6565b610f0590826132f5565b95945050505050565b50600092915050565b50919050565b601381620186a18110610f2f57600080fd5b015462ffffff8116915063ffffffff63010000008204811691600160381b810482169165ffffffffffff600160581b83041691600160881b90041685565b6005546001600160a01b03163314610f975760405162461bcd60e51b81526004016106d69061309c565b6009546001600160a01b0316825b8281116111a0576040516331a9108f60e11b8152600481018290526000906001600160a01b03841690636352211e9060240160206040518083038186803b158015610fef57600080fd5b505afa158015611003573d6000803e3d6000fd5b505050506040513d601f19601f820116820180604052508101906110279190612d9e565b90506000601383620186a1811061104e57634e487b7160e01b600052603260045260246000fd5b6040805160a081018252929091015462ffffff811680845263ffffffff6301000000830481166020860152600160381b830481169385019390935265ffffffffffff600160581b8304166060850152600160881b90910490911660808301529091501561118b576110c28261079685610e13565b63ffffffff4216602082015280601384620186a181106110f257634e487b7160e01b600052603260045260246000fd5b82519101805460208401516040850151606086015160809096015163ffffffff908116600160881b0263ffffffff60881b1965ffffffffffff909816600160581b0265ffffffffffff60581b19938316600160381b0293909316600160381b600160881b03199290941663010000000266ffffffffffffff1990951662ffffff9097169690961793909317929092161717929092161790555b50508080611198906133a1565b915050610fa5565b50505050565b6009546040516370a0823160e01b81523360048201526000916001600160a01b031690829082906370a082319060240160206040518083038186803b1580156111ee57600080fd5b505afa158015611202573d6000803e3d6000fd5b505050506040513d601f19601f820116820180604052508101906112269190612ee5565b9050600081116112635760405162461bcd60e51b815260206004820152600860248201526727279021a424a5a760c11b60448201526064016106d6565b6000805b828110156113b557604051632f745c5960e01b8152336004820152602481018290526000906001600160a01b03861690632f745c599060440160206040518083038186803b1580156112b857600080fd5b505afa1580156112cc573d6000803e3d6000fd5b505050506040513d601f19601f820116820180604052508101906112f09190612ee5565b90506000601382620186a1811061131757634e487b7160e01b600052603260045260246000fd5b6040805160a081018252929091015462ffffff811680845263ffffffff6301000000830481166020860152600160381b830481169385019390935265ffffffffffff600160581b8304166060850152600160881b9091049091166080830152909150156113a057600061138983610e13565b9050801561139e5761139b818661315c565b94505b505b505080806113ad906133a1565b915050611267565b509392505050565b6005546001600160a01b031633146113e75760405162461bcd60e51b81526004016106d69061309c565b6001600160a01b0381166113fa57600080fd5b6001600160a01b03811633141561141057600080fd5b6001600160a01b03166000908152600660205260409020805460ff19169055565b6009546040516370a0823160e01b81523360048201526060916001600160a01b03169060009082906370a082319060240160206040518083038186803b15801561147a57600080fd5b505afa15801561148e573d6000803e3d6000fd5b505050506040513d601f19601f820116820180604052508101906114b29190612ee5565b905060008167ffffffffffffffff8111156114dd57634e487b7160e01b600052604160045260246000fd5b604051908082528060200260200182016040528015611506578160200160208202803683370190505b5090506000805b8381101561167357604051632f745c5960e01b8152336004820152602481018290526000906001600160a01b03871690632f745c599060440160206040518083038186803b15801561155e57600080fd5b505afa158015611572573d6000803e3d6000fd5b505050506040513d601f19601f820116820180604052508101906115969190612ee5565b90506000601382620186a181106115bd57634e487b7160e01b600052603260045260246000fd5b6040805160a081018252929091015462ffffff811680845263ffffffff6301000000830481166020860152600160381b830481169385019390935265ffffffffffff600160581b8304166060850152600160881b90910490911660808301529091501561165e578185858151811061164557634e487b7160e01b600052603260045260246000fd5b60209081029190910101528361165a816133a1565b9450505b5050808061166b906133a1565b91505061150d565b5090949350505050565b6005546001600160a01b031633146116a75760405162461bcd60e51b81526004016106d69061309c565b600c94909455600d92909255600e55600a55600b55565b6005546001600160a01b031633146116e85760405162461bcd60e51b81526004016106d69061309c565b6116f260006125a9565b565b3360009081526006602052604090205460ff168061172b5750336117206005546001600160a01b031690565b6001600160a01b0316145b6117685760405162461bcd60e51b815260206004820152600e60248201526d139bdd08185d5d1a1bdc9a5e995960921b60448201526064016106d6565b6117728282611cc0565b604080516001600160a01b0384168152602081018390527f30385c845b448a36257a6a1716e6ad2e1bc2cbe333cde1e69fe849ad6511adfe91015b60405180910390a15050565b6010546000906117ca6064846131f6565b6117d4919061324d565b600f546106a691906132f5565b606060048054610a6e9061336c565b3360008181526001602090815260408083206001600160a01b0387168452909152812054909190838110156118755760405162461bcd60e51b815260206004820152602560248201527f45524332303a2064656372656173656420616c6c6f77616e63652062656c6f77604482015264207a65726f60d81b60648201526084016106d6565b610b818286868403611e47565b61188c82826125fb565b610b648282612929565b600033610aff8185856123db565b60115460009061069c6064846131f6565b6005546001600160a01b031633146118df5760405162461bcd60e51b81526004016106d69061309c565b6001600160a01b0381166118f257600080fd5b6001600160a01b03166000908152600660205260409020805460ff19166001179055565b610b6482826125fb565b6005546001600160a01b0316331461194a5760405162461bcd60e51b81526004016106d69061309c565b6001600160a01b0381166119af5760405162461bcd60e51b815260206004820152602660248201527f4f776e61626c653a206e6577206f776e657220697320746865207a65726f206160448201526564647265737360d01b60648201526084016106d6565b6119b8816125a9565b50565b6000601382620186a181106119e057634e487b7160e01b600052603260045260246000fd5b6040805160a081018252929091015462ffffff811680845263ffffffff6301000000830481166020860152600160381b830481169385019390935265ffffffffffff600160581b8304166060850152600160881b9091049091166080830152909150611a5e5760405162461bcd60e51b81526004016106d6906130f4565b60095481516001600160a01b0390911690611a7d9062ffffff166117b9565b826060015165ffffffffffff161015611ac95760405162461bcd60e51b815260206004820152600e60248201526d1353d491481193d3d1081491545160921b60448201526064016106d6565b816080015163ffffffff16421015611b165760405162461bcd60e51b815260206004820152601060248201526f10d3d3d31113d5d3881393d50813515560821b60448201526064016106d6565b8151611b2390606461313e565b62ffffff1680835260006060840152611b3b906118a4565b611b45904261315c565b63ffffffff16608083015281601384620186a18110611b7457634e487b7160e01b600052603260045260246000fd5b82519101805460208401516040850151606086015160809096015163ffffffff908116600160881b0263ffffffff60881b1965ffffffffffff909816600160581b0265ffffffffffff60581b19938316600160381b0293909316600160381b600160881b03199290941663010000000266ffffffffffffff1990951662ffffff9097169690961793909317929092161717929092161790556012805460649190600090611c2990849064ffffffffff16613193565b92506101000a81548164ffffffffff021916908364ffffffffff160217905550806001600160a01b031663f33d627f8484600001516040518363ffffffff1660e01b8152600401611c8992919091825262ffffff16602082015260400190565b600060405180830381600087803b158015611ca357600080fd5b505af1158015611cb7573d6000803e3d6000fd5b50505050505050565b6001600160a01b038216611d165760405162461bcd60e51b815260206004820152601f60248201527f45524332303a206d696e7420746f20746865207a65726f20616464726573730060448201526064016106d6565b8060026000828254611d28919061315c565b90915550506001600160a01b03821660009081526020819052604081208054839290611d5590849061315c565b90915550506040518181526001600160a01b038316906000907fddf252ad1be2c89b69c2b068fc378daa952ba7f163c4a11628f55a4df523b3ef9060200160405180910390a35050565b80611dbf836001600160a01b031660009081526020819052604090205490565b1015611dfe5760405162461bcd60e51b815260206004820152600e60248201526d4e4f5420454e4f5547482045474760901b60448201526064016106d6565b611e088282612975565b604080516001600160a01b0384168152602081018390527f696de425f79f4a40bc6d2122ca50507f0efbeabbff86a84871b7196ab8ea8df791016117ad565b6001600160a01b038316611ea95760405162461bcd60e51b8152602060048201526024808201527f45524332303a20617070726f76652066726f6d20746865207a65726f206164646044820152637265737360e01b60648201526084016106d6565b6001600160a01b038216611f0a5760405162461bcd60e51b815260206004820152602260248201527f45524332303a20617070726f766520746f20746865207a65726f206164647265604482015261737360f01b60648201526084016106d6565b6001600160a01b0383811660008181526001602090815260408083209487168084529482529182902085905590518481527f8c5be1e5ebec7d5bd14f71427d1e84f3dd0314c0f7b2291e5b200ac8c7c3b925910160405180910390a3505050565b6009546040516331a9108f60e11b8152600481018390526001600160a01b039091169033908290636352211e9060240160206040518083038186803b158015611fb357600080fd5b505afa158015611fc7573d6000803e3d6000fd5b505050506040513d601f19601f82011682018060405250810190611feb9190612d9e565b6001600160a01b0316146120115760405162461bcd60e51b81526004016106d6906130d1565b604051637b26b18360e01b8152600481018390526000906001600160a01b03831690637b26b183906024016101006040518083038186803b15801561205557600080fd5b505afa158015612069573d6000803e3d6000fd5b505050506040513d601f19601f8201168201806040525081019061208d9190612efd565b9750505050505050506000601384620186a181106120bb57634e487b7160e01b600052603260045260246000fd5b6040805160a081018252929091015462ffffff8116835263ffffffff6301000000820481166020850152600160381b820481169284019290925265ffffffffffff600160581b8204166060840152600160881b9004166080820152905042601385620186a1811061213c57634e487b7160e01b600052603260045260246000fd5b015462ffffff166107ae576040518060a001604052808462ffffff1681526020018263ffffffff1681526020016000846040015163ffffffff161161219357600e5461218e9063ffffffff8516613337565b612199565b83604001515b63ffffffff168152600060208201526040016121b4856118a4565b6121be9084613174565b63ffffffff169052601386620186a181106121e957634e487b7160e01b600052603260045260246000fd5b82519101805460208401516040850151606086015160809096015163ffffffff908116600160881b0263ffffffff60881b1965ffffffffffff909816600160581b0265ffffffffffff60581b19938316600160381b0293909316600160381b600160881b03199290941663010000000266ffffffffffffff1990951662ffffff90971696909617939093179290921617179290921617905560128054600191906005906122a590849061ffff6501000000000090910416613118565b92506101000a81548161ffff021916908361ffff1602179055508262ffffff16601260008282829054906101000a900464ffffffffff166122e69190613193565b92506101000a81548164ffffffffff021916908364ffffffffff1602179055507f925435fa7e37e5d9555bb18ce0d62bb9627d0846942e58e5291e9a2dded462ed8542604051612340929190918252602082015260400190565b60405180910390a15050505050565b6001600160a01b0383811660009081526001602090815260408083209386168352929052205460001981146111a057818110156123ce5760405162461bcd60e51b815260206004820152601d60248201527f45524332303a20696e73756666696369656e7420616c6c6f77616e636500000060448201526064016106d6565b6111a08484848403611e47565b6001600160a01b03831661243f5760405162461bcd60e51b815260206004820152602560248201527f45524332303a207472616e736665722066726f6d20746865207a65726f206164604482015264647265737360d81b60648201526084016106d6565b6001600160a01b0382166124a15760405162461bcd60e51b815260206004820152602360248201527f45524332303a207472616e7366657220746f20746865207a65726f206164647260448201526265737360e81b60648201526084016106d6565b6001600160a01b038316600090815260208190526040902054818110156125195760405162461bcd60e51b815260206004820152602660248201527f45524332303a207472616e7366657220616d6f756e7420657863656564732062604482015265616c616e636560d01b60648201526084016106d6565b6001600160a01b0380851660009081526020819052604080822085850390559185168152908120805484929061255090849061315c565b92505081905550826001600160a01b0316846001600160a01b03167fddf252ad1be2c89b69c2b068fc378daa952ba7f163c4a11628f55a4df523b3ef8460405161259c91815260200190565b60405180910390a36111a0565b600580546001600160a01b038381166001600160a01b0319831681179093556040519116919082907f8be0079c531659141344cd1fd0a4f28419497f9722a3daafe3b4186f6b6457e090600090a35050565b6009546001600160a01b03166000805b838110156128d957336001600160a01b038416636352211e87878581811061264357634e487b7160e01b600052603260045260246000fd5b905060200201356040518263ffffffff1660e01b815260040161266891815260200190565b60206040518083038186803b15801561268057600080fd5b505afa158015612694573d6000803e3d6000fd5b505050506040513d601f19601f820116820180604052508101906126b89190612d9e565b6001600160a01b0316146126de5760405162461bcd60e51b81526004016106d6906130d1565b6000601386868481811061270257634e487b7160e01b600052603260045260246000fd5b90506020020135620186a1811061272957634e487b7160e01b600052603260045260246000fd5b6040805160a081018252929091015462ffffff811680845263ffffffff6301000000830481166020860152600160381b830481169385019390935265ffffffffffff600160581b8304166060850152600160881b9091049091166080830152909150156128c65760006127c18787858181106127b557634e487b7160e01b600052603260045260246000fd5b90506020020135610e13565b905080156128c4576127d3818561315c565b63ffffffff42166020840152935081601388888681811061280457634e487b7160e01b600052603260045260246000fd5b90506020020135620186a1811061282b57634e487b7160e01b600052603260045260246000fd5b82519101805460208401516040850151606086015160809096015163ffffffff908116600160881b0263ffffffff60881b1965ffffffffffff909816600160581b0265ffffffffffff60581b19938316600160381b0293909316600160381b600160881b03199290941663010000000266ffffffffffffff1990951662ffffff9097169690961793909317929092161717929092161790555b505b50806128d1816133a1565b91505061260b565b5080156111a0576128ea3382611cc0565b60408051338152602081018390527f30385c845b448a36257a6a1716e6ad2e1bc2cbe333cde1e69fe849ad6511adfe910160405180910390a150505050565b60005b81811015610b555761296383838381811061295757634e487b7160e01b600052603260045260246000fd5b90506020020135612ac3565b8061296d816133a1565b91505061292c565b6001600160a01b0382166129d55760405162461bcd60e51b815260206004820152602160248201527f45524332303a206275726e2066726f6d20746865207a65726f206164647265736044820152607360f81b60648201526084016106d6565b6001600160a01b03821660009081526020819052604090205481811015612a495760405162461bcd60e51b815260206004820152602260248201527f45524332303a206275726e20616d6f756e7420657863656564732062616c616e604482015261636560f01b60648201526084016106d6565b6001600160a01b0383166000908152602081905260408120838303905560028054849290612a78908490613337565b90915550506040518281526000906001600160a01b038516907fddf252ad1be2c89b69c2b068fc378daa952ba7f163c4a11628f55a4df523b3ef9060200160405180910390a3505050565b6009546040516331a9108f60e11b8152600481018390526001600160a01b039091169033908290636352211e9060240160206040518083038186803b158015612b0b57600080fd5b505afa158015612b1f573d6000803e3d6000fd5b505050506040513d601f19601f82011682018060405250810190612b439190612d9e565b6001600160a01b031614612b695760405162461bcd60e51b81526004016106d6906130d1565b6000601383620186a18110612b8e57634e487b7160e01b600052603260045260246000fd5b6040805160a081018252929091015462ffffff811680845263ffffffff6301000000830481166020860152600160381b830481169385019390935265ffffffffffff600160581b8304166060850152600160881b909104909116608083015290915015610b555780516012805462ffffff90921691600090612c1890849064ffffffffff1661334e565b92506101000a81548164ffffffffff021916908364ffffffffff1602179055506001601260058282829054906101000a900461ffff16612c589190613314565b825461ffff9182166101009390930a9283029190920219909116179055506000815280601384620186a18110612c9e57634e487b7160e01b600052603260045260246000fd5b825191018054602080850151604080870151606088015160809098015162ffffff90971666ffffffffffffff1990951694909417630100000063ffffffff9384160217600160381b600160881b031916600160381b9483169490940265ffffffffffff60581b191693909317600160581b65ffffffffffff909716969096029590951763ffffffff60881b1916600160881b9590941694909402929092179055805185815242928101929092527f69f6d6e6926b6914c628cca5ab19879a4099facaba2b44626e07d8e38ebd189b910160405180910390a1505050565b600060208284031215612d8c578081fd5b8135612d97816133e8565b9392505050565b600060208284031215612daf578081fd5b8151612d97816133e8565b60008060408385031215612dcc578081fd5b8235612dd7816133e8565b91506020830135612de7816133e8565b809150509250929050565b600080600060608486031215612e06578081fd5b8335612e11816133e8565b92506020840135612e21816133e8565b929592945050506040919091013590565b60008060408385031215612e44578182fd5b8235612e4f816133e8565b946020939093013593505050565b60008060208385031215612e6f578182fd5b823567ffffffffffffffff80821115612e86578384fd5b818501915085601f830112612e99578384fd5b813581811115612ea7578485fd5b8660208260051b8501011115612ebb578485fd5b60209290920196919550909350505050565b600060208284031215612ede578081fd5b5035919050565b600060208284031215612ef6578081fd5b5051919050565b600080600080600080600080610100898b031215612f19578384fd5b885197506020890151612f2b816133e8565b60408a0151909750612f3c816133e8565b80965050606089015194506080890151935060a0890151925060c08901518015158114612f67578283fd5b8092505060e089015190509295985092959890939650565b60008060408385031215612f91578182fd5b50508035926020909101359150565b600080600060608486031215612fb4578283fd5b505081359360208301359350604090920135919050565b600080600080600060a08688031215612fe2578081fd5b505083359560208501359550604085013594606081013594506080013592509050565b6020808252825182820181905260009190848201906040850190845b8181101561303d57835183529284019291840191600101613021565b50909695505050505050565b6000602080835283518082850152825b8181101561307557858101830151858201604001528201613059565b818111156130865783604083870101525b50601f01601f1916929092016040019392505050565b6020808252818101527f4f776e61626c653a2063616c6c6572206973206e6f7420746865206f776e6572604082015260600190565b6020808252600990820152682727aa1027aba722a960b91b604082015260600190565b6020808252600a90820152691393d50814d51052d15160b21b604082015260600190565b600061ffff808316818516808303821115613135576131356133bc565b01949350505050565b600062ffffff808316818516808303821115613135576131356133bc565b6000821982111561316f5761316f6133bc565b500190565b600063ffffffff808316818516808303821115613135576131356133bc565b600064ffffffffff808316818516808303821115613135576131356133bc565b600065ffffffffffff808316818516808303821115613135576131356133bc565b600062ffffff808416806131ea576131ea6133d2565b92169190910492915050565b600082613205576132056133d2565b500490565b600181815b8085111561324557816000190482111561322b5761322b6133bc565b8085161561323857918102915b93841c939080029061320f565b509250929050565b6000612d978383600082613263575060016106a6565b81613270575060006106a6565b81600181146132865760028114613290576132ac565b60019150506106a6565b60ff8411156132a1576132a16133bc565b50506001821b6106a6565b5060208310610133831016604e8410600b84101617156132cf575081810a6106a6565b6132d9838361320a565b80600019048211156132ed576132ed6133bc565b029392505050565b600081600019048311821515161561330f5761330f6133bc565b500290565b600061ffff8381169083168181101561332f5761332f6133bc565b039392505050565b600082821015613349576133496133bc565b500390565b600064ffffffffff8381169083168181101561332f5761332f6133bc565b600181811c9082168061338057607f821691505b60208210811415610f1757634e487b7160e01b600052602260045260246000fd5b60006000198214156133b5576133b56133bc565b5060010190565b634e487b7160e01b600052601160045260246000fd5b634e487b7160e01b600052601260045260246000fd5b6001600160a01b03811681146119b857600080fdfea26469706673582212203ea03aec43afda6ba5d76f3678677edcf472b93d88cb26daeebed42f668d365864736f6c63430008040033",
  "linkReferences": {},
  "deployedLinkReferences": {}
}