{
  "_format": "hh-sol-artifact-1",
  "contractName": "FeedV2",
  "sourceName": "contracts/FeedV2.sol",
  "abi": [
    {
      "inputs": [
        {
          "internalType": "address",
          "name": "_chiknContract",
          "type": "address"
        },
        {
          "internalType": "address",
          "name": "_eggContract",
          "type": "address"
        }
      ],
      "stateMutability": "nonpayable",
      "type": "constructor"
    },
    {
      "anonymous": false,
      "inputs": [
        {
          "indexed": true,
          "internalType": "address",
          "name": "owner",
          "type": "address"
        },
        {
          "indexed": true,
          "internalType": "address",
          "name": "spender",
          "type": "address"
        },
        {
          "indexed": false,
          "internalType": "uint256",
          "name": "value",
          "type": "uint256"
        }
      ],
      "name": "Approval",
      "type": "event"
    },
    {
      "anonymous": false,
      "inputs": [
        {
          "indexed": false,
          "internalType": "address",
          "name": "owner",
          "type": "address"
        },
        {
          "indexed": false,
          "internalType": "uint256",
          "name": "numberOfFeed",
          "type": "uint256"
        }
      ],
      "name": "Burned",
      "type": "event"
    },
    {
      "anonymous": false,
      "inputs": [
        {
          "indexed": false,
          "internalType": "address",
          "name": "owner",
          "type": "address"
        },
        {
          "indexed": false,
          "internalType": "uint256",
          "name": "numberOfEggs",
          "type": "uint256"
        }
      ],
      "name": "BurnedEgg",
      "type": "event"
    },
    {
      "anonymous": false,
      "inputs": [
        {
          "indexed": false,
          "internalType": "address",
          "name": "user",
          "type": "address"
        },
        {
          "indexed": false,
          "internalType": "uint256",
          "name": "amount",
          "type": "uint256"
        }
      ],
      "name": "EggStaked",
      "type": "event"
    },
    {
      "anonymous": false,
      "inputs": [
        {
          "indexed": false,
          "internalType": "address",
          "name": "owner",
          "type": "address"
        },
        {
          "indexed": false,
          "internalType": "uint256",
          "name": "numberOfFeed",
          "type": "uint256"
        }
      ],
      "name": "EggSwap",
      "type": "event"
    },
    {
      "anonymous": false,
      "inputs": [
        {
          "indexed": false,
          "internalType": "address",
          "name": "user",
          "type": "address"
        },
        {
          "indexed": false,
          "internalType": "uint256",
          "name": "amount",
          "type": "uint256"
        }
      ],
      "name": "EggUnStaked",
      "type": "event"
    },
    {
      "anonymous": false,
      "inputs": [
        {
          "indexed": false,
          "internalType": "address",
          "name": "owner",
          "type": "address"
        },
        {
          "indexed": false,
          "internalType": "uint256",
          "name": "numberOfFeed",
          "type": "uint256"
        }
      ],
      "name": "Minted",
      "type": "event"
    },
    {
      "anonymous": false,
      "inputs": [
        {
          "indexed": false,
          "internalType": "address",
          "name": "owner",
          "type": "address"
        },
        {
          "indexed": false,
          "internalType": "uint256",
          "name": "numberOfFeed",
          "type": "uint256"
        }
      ],
      "name": "MintedEgg",
      "type": "event"
    },
    {
      "anonymous": false,
      "inputs": [
        {
          "indexed": true,
          "internalType": "address",
          "name": "previousOwner",
          "type": "address"
        },
        {
          "indexed": true,
          "internalType": "address",
          "name": "newOwner",
          "type": "address"
        }
      ],
      "name": "OwnershipTransferred",
      "type": "event"
    },
    {
      "anonymous": false,
      "inputs": [
        {
          "indexed": false,
          "internalType": "address",
          "name": "owner",
          "type": "address"
        },
        {
          "indexed": false,
          "internalType": "uint256",
          "name": "numberOfEggs",
          "type": "uint256"
        }
      ],
      "name": "StakedEgg",
      "type": "event"
    },
    {
      "anonymous": false,
      "inputs": [
        {
          "indexed": true,
          "internalType": "address",
          "name": "from",
          "type": "address"
        },
        {
          "indexed": true,
          "internalType": "address",
          "name": "to",
          "type": "address"
        },
        {
          "indexed": false,
          "internalType": "uint256",
          "name": "value",
          "type": "uint256"
        }
      ],
      "name": "Transfer",
      "type": "event"
    },
    {
      "anonymous": false,
      "inputs": [
        {
          "indexed": false,
          "internalType": "address",
          "name": "owner",
          "type": "address"
        },
        {
          "indexed": false,
          "internalType": "uint256",
          "name": "numberOfEggs",
          "type": "uint256"
        }
      ],
      "name": "UnstakedEgg",
      "type": "event"
    },
    {
      "inputs": [],
      "name": "BOOSTER_MULTIPLIER",
      "outputs": [
        {
          "internalType": "uint256",
          "name": "",
          "type": "uint256"
        }
      ],
      "stateMutability": "view",
      "type": "function"
    },
    {
      "inputs": [],
      "name": "CHIKN_CONTRACT",
      "outputs": [
        {
          "internalType": "address",
          "name": "",
          "type": "address"
        }
      ],
      "stateMutability": "view",
      "type": "function"
    },
    {
      "inputs": [],
      "name": "EGG_CONTRACT",
      "outputs": [
        {
          "internalType": "address",
          "name": "",
          "type": "address"
        }
      ],
      "stateMutability": "view",
      "type": "function"
    },
    {
      "inputs": [],
      "name": "FEED_FARMING_FACTOR",
      "outputs": [
        {
          "internalType": "uint256",
          "name": "",
          "type": "uint256"
        }
      ],
      "stateMutability": "view",
      "type": "function"
    },
    {
      "inputs": [],
      "name": "FEED_SWAP_FACTOR",
      "outputs": [
        {
          "internalType": "uint256",
          "name": "",
          "type": "uint256"
        }
      ],
      "stateMutability": "view",
      "type": "function"
    },
    {
      "inputs": [],
      "name": "MAX_FEED_SUPPLY",
      "outputs": [
        {
          "internalType": "uint256",
          "name": "",
          "type": "uint256"
        }
      ],
      "stateMutability": "view",
      "type": "function"
    },
    {
      "inputs": [
        {
          "internalType": "uint256",
          "name": "",
          "type": "uint256"
        }
      ],
      "name": "_allEggsStakeHolders",
      "outputs": [
        {
          "internalType": "address",
          "name": "",
          "type": "address"
        }
      ],
      "stateMutability": "view",
      "type": "function"
    },
    {
      "inputs": [
        {
          "internalType": "address",
          "name": "_toAdd",
          "type": "address"
        }
      ],
      "name": "addAuthorized",
      "outputs": [],
      "stateMutability": "nonpayable",
      "type": "function"
    },
    {
      "inputs": [
        {
          "internalType": "address",
          "name": "owner",
          "type": "address"
        },
        {
          "internalType": "address",
          "name": "spender",
          "type": "address"
        }
      ],
      "name": "allowance",
      "outputs": [
        {
          "internalType": "uint256",
          "name": "",
          "type": "uint256"
        }
      ],
      "stateMutability": "view",
      "type": "function"
    },
    {
      "inputs": [
        {
          "internalType": "address",
          "name": "spender",
          "type": "address"
        },
        {
          "internalType": "uint256",
          "name": "amount",
          "type": "uint256"
        }
      ],
      "name": "approve",
      "outputs": [
        {
          "internalType": "bool",
          "name": "",
          "type": "bool"
        }
      ],
      "stateMutability": "nonpayable",
      "type": "function"
    },
    {
      "inputs": [
        {
          "internalType": "address",
          "name": "",
          "type": "address"
        }
      ],
      "name": "authorized",
      "outputs": [
        {
          "internalType": "bool",
          "name": "",
          "type": "bool"
        }
      ],
      "stateMutability": "view",
      "type": "function"
    },
    {
      "inputs": [
        {
          "internalType": "address",
          "name": "account",
          "type": "address"
        }
      ],
      "name": "balanceOf",
      "outputs": [
        {
          "internalType": "uint256",
          "name": "",
          "type": "uint256"
        }
      ],
      "stateMutability": "view",
      "type": "function"
    },
    {
      "inputs": [],
      "name": "claimFeed",
      "outputs": [],
      "stateMutability": "nonpayable",
      "type": "function"
    },
    {
      "inputs": [
        {
          "internalType": "address",
          "name": "user",
          "type": "address"
        }
      ],
      "name": "claimableView",
      "outputs": [
        {
          "internalType": "uint256",
          "name": "",
          "type": "uint256"
        }
      ],
      "stateMutability": "view",
      "type": "function"
    },
    {
      "inputs": [],
      "name": "decimals",
      "outputs": [
        {
          "internalType": "uint8",
          "name": "",
          "type": "uint8"
        }
      ],
      "stateMutability": "view",
      "type": "function"
    },
    {
      "inputs": [
        {
          "internalType": "address",
          "name": "spender",
          "type": "address"
        },
        {
          "internalType": "uint256",
          "name": "subtractedValue",
          "type": "uint256"
        }
      ],
      "name": "decreaseAllowance",
      "outputs": [
        {
          "internalType": "bool",
          "name": "",
          "type": "bool"
        }
      ],
      "stateMutability": "nonpayable",
      "type": "function"
    },
    {
      "inputs": [
        {
          "internalType": "address",
          "name": "",
          "type": "address"
        }
      ],
      "name": "eggStakeHolders",
      "outputs": [
        {
          "internalType": "address",
          "name": "user",
          "type": "address"
        },
        {
          "internalType": "uint32",
          "name": "since",
          "type": "uint32"
        },
        {
          "internalType": "uint256",
          "name": "amount",
          "type": "uint256"
        }
      ],
      "stateMutability": "view",
      "type": "function"
    },
    {
      "inputs": [
        {
          "internalType": "uint256",
          "name": "chiknId",
          "type": "uint256"
        },
        {
          "internalType": "uint256",
          "name": "amount",
          "type": "uint256"
        }
      ],
      "name": "feedChikn",
      "outputs": [],
      "stateMutability": "nonpayable",
      "type": "function"
    },
    {
      "inputs": [
        {
          "internalType": "address",
          "name": "spender",
          "type": "address"
        },
        {
          "internalType": "uint256",
          "name": "addedValue",
          "type": "uint256"
        }
      ],
      "name": "increaseAllowance",
      "outputs": [
        {
          "internalType": "bool",
          "name": "",
          "type": "bool"
        }
      ],
      "stateMutability": "nonpayable",
      "type": "function"
    },
    {
      "inputs": [
        {
          "internalType": "address",
          "name": "sender",
          "type": "address"
        },
        {
          "internalType": "uint256",
          "name": "amount",
          "type": "uint256"
        }
      ],
      "name": "mintFeed",
      "outputs": [],
      "stateMutability": "nonpayable",
      "type": "function"
    },
    {
      "inputs": [],
      "name": "name",
      "outputs": [
        {
          "internalType": "string",
          "name": "",
          "type": "string"
        }
      ],
      "stateMutability": "view",
      "type": "function"
    },
    {
      "inputs": [],
      "name": "owner",
      "outputs": [
        {
          "internalType": "address",
          "name": "",
          "type": "address"
        }
      ],
      "stateMutability": "view",
      "type": "function"
    },
    {
      "inputs": [
        {
          "internalType": "uint256",
          "name": "from",
          "type": "uint256"
        },
        {
          "internalType": "uint256",
          "name": "to",
          "type": "uint256"
        }
      ],
      "name": "rebalanceStakingPool",
      "outputs": [],
      "stateMutability": "nonpayable",
      "type": "function"
    },
    {
      "inputs": [
        {
          "internalType": "address",
          "name": "_toRemove",
          "type": "address"
        }
      ],
      "name": "removeAuthorized",
      "outputs": [],
      "stateMutability": "nonpayable",
      "type": "function"
    },
    {
      "inputs": [],
      "name": "renounceOwnership",
      "outputs": [],
      "stateMutability": "nonpayable",
      "type": "function"
    },
    {
      "inputs": [
        {
          "internalType": "uint256",
          "name": "amount",
          "type": "uint256"
        }
      ],
      "name": "staking",
      "outputs": [],
      "stateMutability": "nonpayable",
      "type": "function"
    },
    {
      "inputs": [
        {
          "internalType": "uint256",
          "name": "eggAmt",
          "type": "uint256"
        }
      ],
      "name": "swapEggForFeed",
      "outputs": [],
      "stateMutability": "nonpayable",
      "type": "function"
    },
    {
      "inputs": [],
      "name": "symbol",
      "outputs": [
        {
          "internalType": "string",
          "name": "",
          "type": "string"
        }
      ],
      "stateMutability": "view",
      "type": "function"
    },
    {
      "inputs": [],
      "name": "totalEggHolder",
      "outputs": [
        {
          "internalType": "uint256",
          "name": "",
          "type": "uint256"
        }
      ],
      "stateMutability": "view",
      "type": "function"
    },
    {
      "inputs": [],
      "name": "totalEggStaked",
      "outputs": [
        {
          "internalType": "uint256",
          "name": "",
          "type": "uint256"
        }
      ],
      "stateMutability": "view",
      "type": "function"
    },
    {
      "inputs": [],
      "name": "totalSupply",
      "outputs": [
        {
          "internalType": "uint256",
          "name": "",
          "type": "uint256"
        }
      ],
      "stateMutability": "view",
      "type": "function"
    },
    {
      "inputs": [
        {
          "internalType": "address",
          "name": "to",
          "type": "address"
        },
        {
          "internalType": "uint256",
          "name": "amount",
          "type": "uint256"
        }
      ],
      "name": "transfer",
      "outputs": [
        {
          "internalType": "bool",
          "name": "",
          "type": "bool"
        }
      ],
      "stateMutability": "nonpayable",
      "type": "function"
    },
    {
      "inputs": [
        {
          "internalType": "address",
          "name": "from",
          "type": "address"
        },
        {
          "internalType": "address",
          "name": "to",
          "type": "address"
        },
        {
          "internalType": "uint256",
          "name": "amount",
          "type": "uint256"
        }
      ],
      "name": "transferFrom",
      "outputs": [
        {
          "internalType": "bool",
          "name": "",
          "type": "bool"
        }
      ],
      "stateMutability": "nonpayable",
      "type": "function"
    },
    {
      "inputs": [
        {
          "internalType": "address",
          "name": "newOwner",
          "type": "address"
        }
      ],
      "name": "transferOwnership",
      "outputs": [],
      "stateMutability": "nonpayable",
      "type": "function"
    },
    {
      "inputs": [
        {
          "internalType": "uint256",
          "name": "_value",
          "type": "uint256"
        }
      ],
      "name": "updateBoosterMultiplier",
      "outputs": [],
      "stateMutability": "nonpayable",
      "type": "function"
    },
    {
      "inputs": [
        {
          "internalType": "uint256",
          "name": "_value",
          "type": "uint256"
        }
      ],
      "name": "updateFarmingFactor",
      "outputs": [],
      "stateMutability": "nonpayable",
      "type": "function"
    },
    {
      "inputs": [
        {
          "internalType": "uint256",
          "name": "_value",
          "type": "uint256"
        }
      ],
      "name": "updateFeedSwapFactor",
      "outputs": [],
      "stateMutability": "nonpayable",
      "type": "function"
    },
    {
      "inputs": [
        {
          "internalType": "uint256",
          "name": "_value",
          "type": "uint256"
        }
      ],
      "name": "updateMaxFeedSupply",
      "outputs": [],
      "stateMutability": "nonpayable",
      "type": "function"
    },
    {
      "inputs": [],
      "name": "withdrawAllEggAndClaimFeed",
      "outputs": [],
      "stateMutability": "nonpayable",
      "type": "function"
    },
    {
      "inputs": [
        {
          "internalType": "uint256",
          "name": "amount",
          "type": "uint256"
        }
      ],
      "name": "withdrawEgg",
      "outputs": [],
      "stateMutability": "nonpayable",
      "type": "function"
    }
  ],
  "bytecode": "0x6b6765c793fa10079d0000000060075560c0604052600a60808190526918da1a5adb881999595960b21b60a09081526200003d9160089190620002a1565b50604080518082019091526004808252631191515160e21b60209092019182526200006b91600991620002a1565b506001600c556003600d55600c600e553480156200008857600080fd5b50604051620029a7380380620029a7833981016040819052620000ab9162000364565b60088054620000ba906200039b565b80601f0160208091040260200160405190810160405280929190818152602001828054620000e8906200039b565b8015620001395780601f106200010d5761010080835404028352916020019162000139565b820191906000526020600020905b8154815290600101906020018083116200011b57829003601f168201915b5050505050600980546200014d906200039b565b80601f01602080910402602001604051908101604052809291908181526020018280546200017b906200039b565b8015620001cc5780601f10620001a057610100808354040283529160200191620001cc565b820191906000526020600020905b815481529060010190602001808311620001ae57829003601f168201915b50508451620001e6935060039250602086019150620002a1565b508051620001fc906004906020840190620002a1565b50505062000219620002136200024b60201b60201c565b6200024f565b600a80546001600160a01b039384166001600160a01b031991821617909155600b8054929093169116179055620003d8565b3390565b600580546001600160a01b038381166001600160a01b0319831681179093556040519116919082907f8be0079c531659141344cd1fd0a4f28419497f9722a3daafe3b4186f6b6457e090600090a35050565b828054620002af906200039b565b90600052602060002090601f016020900481019282620002d357600085556200031e565b82601f10620002ee57805160ff19168380011785556200031e565b828001600101855582156200031e579182015b828111156200031e57825182559160200191906001019062000301565b506200032c92915062000330565b5090565b5b808211156200032c576000815560010162000331565b80516001600160a01b03811681146200035f57600080fd5b919050565b6000806040838503121562000377578182fd5b620003828362000347565b9150620003926020840162000347565b90509250929050565b600181811c90821680620003b057607f821691505b60208210811415620003d257634e487b7160e01b600052602260045260246000fd5b50919050565b6125bf80620003e86000396000f3fe608060405234801561001057600080fd5b50600436106102485760003560e01c80636a78a2161161013b578063ab0b9d26116100b8578063dd62ed3e1161007c578063dd62ed3e14610536578063e05c99561461056f578063e070d61914610578578063f2fde38b1461058b578063f692a7381461059e57600080fd5b8063ab0b9d26146104db578063b9181611146104e4578063cb4d6eb014610507578063ce78f4d714610510578063cf1c316a1461052357600080fd5b80638da5cb5b116100ff5780638da5cb5b14610489578063915b4fcb1461049a57806395d89b41146104ad578063a457c2d7146104b5578063a9059cbb146104c857600080fd5b80636a78a2161461043557806370a0823114610448578063715018a6146104715780638506b82a1461047957806388c00a581461048157600080fd5b806333873913116101c9578063485d7d941161018d578063485d7d94146103be5780634c1a0012146103d15780634d2224b8146103fc57806357545a671461040f578063605fba671461042257600080fd5b8063338739131461031357806336d1f8a11461031b578063395093511461032e5780633e46dd1b146103415780633ed2f7721461035457600080fd5b80631dbb2a22116102105780631dbb2a22146102c25780631f6dc8ee146102d557806323b872dd146102e85780632de16cf2146102fb578063313ce5671461030457600080fd5b806306fdde031461024d578063095ea7b31461026b5780631222b0f11461028e57806318160ddd146102a55780631bf4d233146102ad575b600080fd5b6102556105b1565b60405161026291906123e8565b60405180910390f35b61027e61027936600461228f565b610643565b6040519015158152602001610262565b61029760105481565b604051908152602001610262565b600254610297565b6102c06102bb366004612333565b61065b565b005b6102c06102d0366004612333565b610776565b6102c06102e3366004612333565b610a61565b61027e6102f636600461224f565b610a90565b610297600e5481565b60405160128152602001610262565b601154610297565b6102c0610329366004612363565b610ab4565b61027e61033c36600461228f565b610d6e565b6102c061034f366004612363565b610dad565b6103946103623660046121d8565b600f60205260009081526040902080546001909101546001600160a01b03821691600160a01b900463ffffffff169083565b604080516001600160a01b03909416845263ffffffff909216602084015290820152606001610262565b6102c06103cc3660046121d8565b610eb0565b600a546103e4906001600160a01b031681565b6040516001600160a01b039091168152602001610262565b6103e461040a366004612333565b610f24565b6102c061041d366004612333565b610f4e565b6102976104303660046121d8565b610f7d565b600b546103e4906001600160a01b031681565b6102976104563660046121d8565b6001600160a01b031660009081526020819052604090205490565b6102c0610ff7565b6102c061102d565b6102c06110dc565b6005546001600160a01b03166103e4565b6102c06104a8366004612333565b611236565b6102556113f6565b61027e6104c336600461228f565b611405565b61027e6104d636600461228f565b611497565b610297600d5481565b61027e6104f23660046121d8565b60066020526000908152604090205460ff1681565b61029760075481565b6102c061051e366004612333565b6114a5565b6102c06105313660046121d8565b6114d4565b610297610544366004612217565b6001600160a01b03918216600090815260016020908152604080832093909416825291909152205490565b610297600c5481565b6102c0610586366004612333565b611535565b6102c06105993660046121d8565b611564565b6102c06105ac36600461228f565b6115ff565b6060600380546105c09061250e565b80601f01602080910402602001604051908101604052809291908181526020018280546105ec9061250e565b80156106395780601f1061060e57610100808354040283529160200191610639565b820191906000526020600020905b81548152906001019060200180831161061c57829003601f168201915b5050505050905090565b600033610651818585611633565b5060019392505050565b600081116106b05760405162461bcd60e51b815260206004820152601760248201527f4d555354204245204d4f5245205448414e20302045474700000000000000000060448201526064015b60405180910390fd5b600b54604051621e54ad60e81b81526001600160a01b03909116908190631e54ad00906106e390339086906004016123cf565b600060405180830381600087803b1580156106fd57600080fd5b505af1158015610711573d6000803e3d6000fd5b5050505061072c33600e548461072791906124d8565b611757565b7f3710a8e372bfb812bf32dba8c5e3bc421ae07a7ce611c4f10eea58c503ddb08e33600e548461075c91906124d8565b60405161076a9291906123cf565b60405180910390a15050565b600081116107b15760405162461bcd60e51b81526020600482015260086024820152674e4545442045474760c01b60448201526064016106a7565b600b546040516370a0823160e01b81523360048201526001600160a01b039091169060009082906370a082319060240160206040518083038186803b1580156107f957600080fd5b505afa15801561080d573d6000803e3d6000fd5b505050506040513d601f19601f82011682018060405250810190610831919061234b565b9050828110156108745760405162461bcd60e51b815260206004820152600e60248201526d4e4f5420454e4f5547482045474760901b60448201526064016106a7565b61089d604051806040016040528060078152602001663232b732b6b29d60c91b81525082611836565b336000908152600f6020908152604091829020825160608101845281546001600160a01b0381168252600160a01b900463ffffffff16818401526001909101548184019081528351808501909452601384527232bc34b9ba34b733a2b3b39730b6b7bab73a1d60691b928401929092529051909161091a91611836565b60408101511561099357600061092f33610f7d565b905061093b3382611757565b7f30385c845b448a36257a6a1716e6ad2e1bc2cbe333cde1e69fe849ad6511adfe338660405161096c9291906123cf565b60405180910390a161098d3386846040015161098891906124a0565b61187b565b506109c3565b6109c36040518060400160405280600f81526020016e313ab930bcb09033b4b9323497171760891b815250611a25565b604051621e54ad60e81b81526001600160a01b03841690631e54ad00906109f090339088906004016123cf565b600060405180830381600087803b158015610a0a57600080fd5b505af1158015610a1e573d6000803e3d6000fd5b505050507f5cf496bc5fdd86b7461c874b45c54d5462b15f7169d0fcaa117b709e1eb4e1b13385604051610a539291906123cf565b60405180910390a150505050565b6005546001600160a01b03163314610a8b5760405162461bcd60e51b81526004016106a790612447565b600c55565b600033610a9e858285611a68565b610aa9858585611afa565b506001949350505050565b60008111610b045760405162461bcd60e51b815260206004820152601860248201527f4d555354204245204d4f5245205448414e20302046454544000000000000000060448201526064016106a7565b600a546040516331a9108f60e11b8152600481018490526001600160a01b039091169033908290636352211e9060240160206040518083038186803b158015610b4c57600080fd5b505afa158015610b60573d6000803e3d6000fd5b505050506040513d601f19601f82011682018060405250810190610b8491906121fb565b6001600160a01b031614610bc65760405162461bcd60e51b81526020600482015260096024820152682727aa1027aba722a960b91b60448201526064016106a7565b33600090815260208190526040902054821115610c175760405162461bcd60e51b815260206004820152600f60248201526e1393d508115393d551d20811915151608a1b60448201526064016106a7565b600b546040516343293ac560e01b8152600481018590526001600160a01b039091169060009082906343293ac59060240160a06040518083038186803b158015610c6057600080fd5b505afa158015610c74573d6000803e3d6000fd5b505050506040513d601f19601f82011682018060405250810190610c9891906122ba565b50505050905060008162ffffff1611610cc35760405162461bcd60e51b81526004016106a79061247c565b610ccd3385611cc8565b7f696de425f79f4a40bc6d2122ca50507f0efbeabbff86a84871b7196ab8ea8df73385604051610cfe9291906123cf565b60405180910390a16040516336d1f8a160e01b815260048101869052602481018590526001600160a01b038316906336d1f8a190604401600060405180830381600087803b158015610d4f57600080fd5b505af1158015610d63573d6000803e3d6000fd5b505050505050505050565b3360008181526001602090815260408083206001600160a01b03871684529091528120549091906106519082908690610da89087906124a0565b611633565b6005546001600160a01b03163314610dd75760405162461bcd60e51b81526004016106a790612447565b815b818111610eab576000610deb82611e16565b90506000610df882610f7d565b6001600160a01b038381166000908152600f6020908152604091829020825160608101845281549485168152600160a01b90940463ffffffff16918401919091526001015490820152909150610e4e8383611757565b7f30385c845b448a36257a6a1716e6ad2e1bc2cbe333cde1e69fe849ad6511adfe8383604051610e7f9291906123cf565b60405180910390a1610e9583826040015161187b565b5050508080610ea390612543565b915050610dd9565b505050565b6005546001600160a01b03163314610eda5760405162461bcd60e51b81526004016106a790612447565b6001600160a01b038116610eed57600080fd5b6001600160a01b038116331415610f0357600080fd5b6001600160a01b03166000908152600660205260409020805460ff19169055565b60118181548110610f3457600080fd5b6000918252602090912001546001600160a01b0316905081565b6005546001600160a01b03163314610f785760405162461bcd60e51b81526004016106a790612447565b600d55565b6001600160a01b038181166000908152600f60209081526040808320815160608101835281549586168152600160a01b90950463ffffffff168584015260010154848201528051808201909152600981526832b3b3903ab9b2b91d60b91b918101919091528251919291610ff19190611e54565b50919050565b6005546001600160a01b031633146110215760405162461bcd60e51b81526004016106a790612447565b61102b6000611e99565b565b600061103833610f7d565b90506000811161107d5760405162461bcd60e51b815260206004820152601060248201526f4e4f204645454420544f20434c41494d60801b60448201526064016106a7565b336000818152600f6020908152604091829020825160608101845281546001600160a01b0381168252600160a01b900463ffffffff169281019290925260010154918101829052916110ce9161187b565b6110d83383611eeb565b5050565b336000908152600f6020908152604091829020825160608101845281546001600160a01b038116808352600160a01b90910463ffffffff1693820193909352600190910154928101929092526111445760405162461bcd60e51b81526004016106a79061247c565b600061114f33610f7d565b90508015611161576111613382611eeb565b60408201511561122d576000600c8360400151600b61118091906124d8565b61118a91906124b8565b600b54604051637575229160e01b81529192506001600160a01b03169081906375752291906111bf90339086906004016123cf565b600060405180830381600087803b1580156111d957600080fd5b505af11580156111ed573d6000803e3d6000fd5b505050507f0d63943f634599f1ff2cfaefa1a32228df2df1daaa6a3c204039664957e3ffba33836040516112229291906123cf565b60405180910390a150505b6110d833611f7c565b6000811161127c5760405162461bcd60e51b815260206004820152601360248201527204d555354204245204d4f5245205448414e203606c1b60448201526064016106a7565b336000908152600f6020908152604091829020825160608101845281546001600160a01b038116808352600160a01b90910463ffffffff1693820193909352600190910154928101929092526112e45760405162461bcd60e51b81526004016106a79061247c565b80604001518211156113245760405162461bcd60e51b815260206004820152600960248201526827ab22a9222920aba760b91b60448201526064016106a7565b600b5460408201516001600160a01b03909116906113499033906109889086906124f7565b6000600c61135885600b6124d8565b61136291906124b8565b604051637575229160e01b81529091506001600160a01b0383169063757522919061139390339085906004016123cf565b600060405180830381600087803b1580156113ad57600080fd5b505af11580156113c1573d6000803e3d6000fd5b505050507f0d63943f634599f1ff2cfaefa1a32228df2df1daaa6a3c204039664957e3ffba3382604051610a539291906123cf565b6060600480546105c09061250e565b3360008181526001602090815260408083206001600160a01b03871684529091528120549091908381101561148a5760405162461bcd60e51b815260206004820152602560248201527f45524332303a2064656372656173656420616c6c6f77616e63652062656c6f77604482015264207a65726f60d81b60648201526084016106a7565b610aa98286868403611633565b600033610651818585611afa565b6005546001600160a01b031633146114cf5760405162461bcd60e51b81526004016106a790612447565b600755565b6005546001600160a01b031633146114fe5760405162461bcd60e51b81526004016106a790612447565b6001600160a01b03811661151157600080fd5b6001600160a01b03166000908152600660205260409020805460ff19166001179055565b6005546001600160a01b0316331461155f5760405162461bcd60e51b81526004016106a790612447565b600e55565b6005546001600160a01b0316331461158e5760405162461bcd60e51b81526004016106a790612447565b6001600160a01b0381166115f35760405162461bcd60e51b815260206004820152602660248201527f4f776e61626c653a206e6577206f776e657220697320746865207a65726f206160448201526564647265737360d01b60648201526084016106a7565b6115fc81611e99565b50565b6005546001600160a01b031633146116295760405162461bcd60e51b81526004016106a790612447565b6110d88282611eeb565b6001600160a01b0383166116955760405162461bcd60e51b8152602060048201526024808201527f45524332303a20617070726f76652066726f6d20746865207a65726f206164646044820152637265737360e01b60648201526084016106a7565b6001600160a01b0382166116f65760405162461bcd60e51b815260206004820152602260248201527f45524332303a20617070726f766520746f20746865207a65726f206164647265604482015261737360f01b60648201526084016106a7565b6001600160a01b0383811660008181526001602090815260408083209487168084529482529182902085905590518481527f8c5be1e5ebec7d5bd14f71427d1e84f3dd0314c0f7b2291e5b200ac8c7c3b925910160405180910390a3505050565b6001600160a01b0382166117ad5760405162461bcd60e51b815260206004820152601f60248201527f45524332303a206d696e7420746f20746865207a65726f20616464726573730060448201526064016106a7565b80600260008282546117bf91906124a0565b90915550506001600160a01b038216600090815260208190526040812080548392906117ec9084906124a0565b90915550506040518181526001600160a01b038316906000907fddf252ad1be2c89b69c2b068fc378daa952ba7f163c4a11628f55a4df523b3ef9060200160405180910390a35050565b6110d8828260405160240161184c929190612425565b60408051601f198184030181529190526020810180516001600160e01b03166309710a9d60e41b179052612086565b6001600160a01b0382166118c15760405162461bcd60e51b815260206004820152600d60248201526c454d505459204144445245535360981b60448201526064016106a7565b6001600160a01b038281166000908152600f602090815260409182902082516060810184528154948516808252600160a01b90950463ffffffff169281019290925260010154918101919091529061197057601180546001600160a01b0385166000818152601260205260408120839055600183018455929092527f31ecc21a745e3968a04e9570e4425bc18fa8019c68028196b546d1669c200c680180546001600160a01b03191690911790555b604080820180516001600160a01b0380871680865286845263ffffffff42811660208089019182526000938452600f905295909120865181549651909216600160a01b026001600160c01b03199096169190921617939093178355905160019092019190915560105483906119e69083906124f7565b6119f091906124a0565b6010556040517f8cf522f7e177cbcfbad1e020debe8367c06762e096cfe8be0db5bddd391aa5f890610a5390869086906123cf565b6115fc81604051602401611a3991906123e8565b60408051601f198184030181529190526020810180516001600160e01b031663104c13eb60e21b179052612086565b6001600160a01b038381166000908152600160209081526040808320938616835292905220546000198114611af45781811015611ae75760405162461bcd60e51b815260206004820152601d60248201527f45524332303a20696e73756666696369656e7420616c6c6f77616e636500000060448201526064016106a7565b611af48484848403611633565b50505050565b6001600160a01b038316611b5e5760405162461bcd60e51b815260206004820152602560248201527f45524332303a207472616e736665722066726f6d20746865207a65726f206164604482015264647265737360d81b60648201526084016106a7565b6001600160a01b038216611bc05760405162461bcd60e51b815260206004820152602360248201527f45524332303a207472616e7366657220746f20746865207a65726f206164647260448201526265737360e81b60648201526084016106a7565b6001600160a01b03831660009081526020819052604090205481811015611c385760405162461bcd60e51b815260206004820152602660248201527f45524332303a207472616e7366657220616d6f756e7420657863656564732062604482015265616c616e636560d01b60648201526084016106a7565b6001600160a01b03808516600090815260208190526040808220858503905591851681529081208054849290611c6f9084906124a0565b92505081905550826001600160a01b0316846001600160a01b03167fddf252ad1be2c89b69c2b068fc378daa952ba7f163c4a11628f55a4df523b3ef84604051611cbb91815260200190565b60405180910390a3611af4565b6001600160a01b038216611d285760405162461bcd60e51b815260206004820152602160248201527f45524332303a206275726e2066726f6d20746865207a65726f206164647265736044820152607360f81b60648201526084016106a7565b6001600160a01b03821660009081526020819052604090205481811015611d9c5760405162461bcd60e51b815260206004820152602260248201527f45524332303a206275726e20616d6f756e7420657863656564732062616c616e604482015261636560f01b60648201526084016106a7565b6001600160a01b0383166000908152602081905260408120838303905560028054849290611dcb9084906124f7565b90915550506040518281526000906001600160a01b038516907fddf252ad1be2c89b69c2b068fc378daa952ba7f163c4a11628f55a4df523b3ef9060200160405180910390a3505050565b600060118281548110611e3957634e487b7160e01b600052603260045260246000fd5b6000918252602090912001546001600160a01b031692915050565b6110d88282604051602401611e6a9291906123fb565b60408051601f198184030181529190526020810180516001600160e01b031663319af33360e01b179052612086565b600580546001600160a01b038381166001600160a01b0319831681179093556040519116919082907f8be0079c531659141344cd1fd0a4f28419497f9722a3daafe3b4186f6b6457e090600090a35050565b60075481611ef860025490565b611f0291906124a0565b10611f415760405162461bcd60e51b815260206004820152600f60248201526e4f564552204d415820535550504c5960881b60448201526064016106a7565b611f4b8282611757565b7f30385c845b448a36257a6a1716e6ad2e1bc2cbe333cde1e69fe849ad6511adfe828260405161076a9291906123cf565b6001600160a01b038181166000908152600f602090815260409182902082516060810184528154948516808252600160a01b90950463ffffffff16928101929092526001015491810191909152906120065760405162461bcd60e51b815260206004820152600d60248201526c454d505459204144445245535360981b60448201526064016106a7565b806040015160105461201891906124f7565b601055612024826120a7565b6001600160a01b0382166000908152600f602052604080822080546001600160c01b0319168155600101919091558181015190517f18dd719df96d63d56d2a451e66a855bad94b8ccfea3a0873afa48fbe8a02c7679161076a918591906123cf565b80516a636f6e736f6c652e6c6f67602083016000808483855afa5050505050565b6011546000906120b9906001906124f7565b6001600160a01b038316600090815260126020526040812054601180549394509092849081106120f957634e487b7160e01b600052603260045260246000fd5b600091825260209091200154601180546001600160a01b03909216925082918490811061213657634e487b7160e01b600052603260045260246000fd5b600091825260208083209190910180546001600160a01b0319166001600160a01b039485161790558383168252601290526040808220859055918616815290812055601180548061219757634e487b7160e01b600052603160045260246000fd5b600082815260209020810160001990810180546001600160a01b031916905501905550505050565b805163ffffffff811681146121d357600080fd5b919050565b6000602082840312156121e9578081fd5b81356121f481612574565b9392505050565b60006020828403121561220c578081fd5b81516121f481612574565b60008060408385031215612229578081fd5b823561223481612574565b9150602083013561224481612574565b809150509250929050565b600080600060608486031215612263578081fd5b833561226e81612574565b9250602084013561227e81612574565b929592945050506040919091013590565b600080604083850312156122a1578182fd5b82356122ac81612574565b946020939093013593505050565b600080600080600060a086880312156122d1578081fd5b855162ffffff811681146122e3578182fd5b94506122f1602087016121bf565b93506122ff604087016121bf565b9250606086015165ffffffffffff81168114612319578182fd5b9150612327608087016121bf565b90509295509295909350565b600060208284031215612344578081fd5b5035919050565b60006020828403121561235c578081fd5b5051919050565b60008060408385031215612375578182fd5b50508035926020909101359150565b60008151808452815b818110156123a95760208185018101518683018201520161238d565b818111156123ba5782602083870101525b50601f01601f19169290920160200192915050565b6001600160a01b03929092168252602082015260400190565b6020815260006121f46020830184612384565b60408152600061240e6040830185612384565b905060018060a01b03831660208301529392505050565b6040815260006124386040830185612384565b90508260208301529392505050565b6020808252818101527f4f776e61626c653a2063616c6c6572206973206e6f7420746865206f776e6572604082015260600190565b6020808252600a90820152691393d50814d51052d15160b21b604082015260600190565b600082198211156124b3576124b361255e565b500190565b6000826124d357634e487b7160e01b81526012600452602481fd5b500490565b60008160001904831182151516156124f2576124f261255e565b500290565b6000828210156125095761250961255e565b500390565b600181811c9082168061252257607f821691505b60208210811415610ff157634e487b7160e01b600052602260045260246000fd5b60006000198214156125575761255761255e565b5060010190565b634e487b7160e01b600052601160045260246000fd5b6001600160a01b03811681146115fc57600080fdfea2646970667358221220d831630a45afa9edb580d4bd544d3d3a4e548d69f8fec72bd73e7c60178d9ecc64736f6c63430008040033",
  "linkReferences": {},
  "deployedLinkReferences": {}
}